{
  "address": "0xeF6e708ccFeF824EEa9FA022eeE2313Cb9968955",
  "abi": [
    {
      "inputs": [],
      "stateMutability": "nonpayable",
      "type": "constructor"
    },
    {
      "anonymous": false,
      "inputs": [
        {
          "indexed": false,
          "internalType": "address",
          "name": "previousAdmin",
          "type": "address"
        },
        {
          "indexed": false,
          "internalType": "address",
          "name": "newAdmin",
          "type": "address"
        }
      ],
      "name": "AdminChanged",
      "type": "event"
    },
    {
      "anonymous": false,
      "inputs": [
        {
          "indexed": true,
          "internalType": "address",
          "name": "owner",
          "type": "address"
        },
        {
          "indexed": true,
          "internalType": "address",
          "name": "approved",
          "type": "address"
        },
        {
          "indexed": true,
          "internalType": "uint256",
          "name": "tokenId",
          "type": "uint256"
        }
      ],
      "name": "Approval",
      "type": "event"
    },
    {
      "anonymous": false,
      "inputs": [
        {
          "indexed": true,
          "internalType": "address",
          "name": "owner",
          "type": "address"
        },
        {
          "indexed": true,
          "internalType": "address",
          "name": "operator",
          "type": "address"
        },
        {
          "indexed": false,
          "internalType": "bool",
          "name": "approved",
          "type": "bool"
        }
      ],
      "name": "ApprovalForAll",
      "type": "event"
    },
    {
      "anonymous": false,
      "inputs": [
        {
          "indexed": true,
          "internalType": "address",
          "name": "beacon",
          "type": "address"
        }
      ],
      "name": "BeaconUpgraded",
      "type": "event"
    },
    {
      "anonymous": false,
      "inputs": [
        {
          "indexed": false,
          "internalType": "address",
          "name": "account",
          "type": "address"
        }
      ],
      "name": "Paused",
      "type": "event"
    },
    {
      "anonymous": false,
      "inputs": [
        {
          "indexed": true,
          "internalType": "bytes32",
          "name": "role",
          "type": "bytes32"
        },
        {
          "indexed": true,
          "internalType": "bytes32",
          "name": "previousAdminRole",
          "type": "bytes32"
        },
        {
          "indexed": true,
          "internalType": "bytes32",
          "name": "newAdminRole",
          "type": "bytes32"
        }
      ],
      "name": "RoleAdminChanged",
      "type": "event"
    },
    {
      "anonymous": false,
      "inputs": [
        {
          "indexed": true,
          "internalType": "bytes32",
          "name": "role",
          "type": "bytes32"
        },
        {
          "indexed": true,
          "internalType": "address",
          "name": "account",
          "type": "address"
        },
        {
          "indexed": true,
          "internalType": "address",
          "name": "sender",
          "type": "address"
        }
      ],
      "name": "RoleGranted",
      "type": "event"
    },
    {
      "anonymous": false,
      "inputs": [
        {
          "indexed": true,
          "internalType": "bytes32",
          "name": "role",
          "type": "bytes32"
        },
        {
          "indexed": true,
          "internalType": "address",
          "name": "account",
          "type": "address"
        },
        {
          "indexed": true,
          "internalType": "address",
          "name": "sender",
          "type": "address"
        }
      ],
      "name": "RoleRevoked",
      "type": "event"
    },
    {
      "anonymous": false,
      "inputs": [
        {
          "indexed": true,
          "internalType": "address",
          "name": "from",
          "type": "address"
        },
        {
          "indexed": true,
          "internalType": "address",
          "name": "to",
          "type": "address"
        },
        {
          "indexed": true,
          "internalType": "uint256",
          "name": "tokenId",
          "type": "uint256"
        }
      ],
      "name": "Transfer",
      "type": "event"
    },
    {
      "anonymous": false,
      "inputs": [
        {
          "indexed": false,
          "internalType": "address",
          "name": "account",
          "type": "address"
        }
      ],
      "name": "Unpaused",
      "type": "event"
    },
    {
      "anonymous": false,
      "inputs": [
        {
          "indexed": true,
          "internalType": "address",
          "name": "implementation",
          "type": "address"
        }
      ],
      "name": "Upgraded",
      "type": "event"
    },
    {
      "inputs": [],
      "name": "DEFAULT_ADMIN_ROLE",
      "outputs": [
        {
          "internalType": "bytes32",
          "name": "",
          "type": "bytes32"
        }
      ],
      "stateMutability": "view",
      "type": "function"
    },
    {
      "inputs": [],
      "name": "MINTER_ROLE",
      "outputs": [
        {
          "internalType": "bytes32",
          "name": "",
          "type": "bytes32"
        }
      ],
      "stateMutability": "view",
      "type": "function"
    },
    {
      "inputs": [],
      "name": "PAUSER_ROLE",
      "outputs": [
        {
          "internalType": "bytes32",
          "name": "",
          "type": "bytes32"
        }
      ],
      "stateMutability": "view",
      "type": "function"
    },
    {
      "inputs": [],
      "name": "UPGRADER_ROLE",
      "outputs": [
        {
          "internalType": "bytes32",
          "name": "",
          "type": "bytes32"
        }
      ],
      "stateMutability": "view",
      "type": "function"
    },
    {
      "inputs": [
        {
          "internalType": "address",
          "name": "to",
          "type": "address"
        },
        {
          "internalType": "uint256",
          "name": "tokenId",
          "type": "uint256"
        }
      ],
      "name": "approve",
      "outputs": [],
      "stateMutability": "nonpayable",
      "type": "function"
    },
    {
      "inputs": [
        {
          "internalType": "address",
          "name": "owner",
          "type": "address"
        }
      ],
      "name": "balanceOf",
      "outputs": [
        {
          "internalType": "uint256",
          "name": "",
          "type": "uint256"
        }
      ],
      "stateMutability": "view",
      "type": "function"
    },
    {
      "inputs": [
        {
          "internalType": "uint256",
          "name": "tokenId",
          "type": "uint256"
        }
      ],
      "name": "getApproved",
      "outputs": [
        {
          "internalType": "address",
          "name": "",
          "type": "address"
        }
      ],
      "stateMutability": "view",
      "type": "function"
    },
    {
      "inputs": [
        {
          "internalType": "bytes32",
          "name": "role",
          "type": "bytes32"
        }
      ],
      "name": "getRoleAdmin",
      "outputs": [
        {
          "internalType": "bytes32",
          "name": "",
          "type": "bytes32"
        }
      ],
      "stateMutability": "view",
      "type": "function"
    },
    {
      "inputs": [
        {
          "internalType": "bytes32",
          "name": "role",
          "type": "bytes32"
        },
        {
          "internalType": "address",
          "name": "account",
          "type": "address"
        }
      ],
      "name": "grantRole",
      "outputs": [],
      "stateMutability": "nonpayable",
      "type": "function"
    },
    {
      "inputs": [
        {
          "internalType": "bytes32",
          "name": "role",
          "type": "bytes32"
        },
        {
          "internalType": "address",
          "name": "account",
          "type": "address"
        }
      ],
      "name": "hasRole",
      "outputs": [
        {
          "internalType": "bool",
          "name": "",
          "type": "bool"
        }
      ],
      "stateMutability": "view",
      "type": "function"
    },
    {
      "inputs": [
        {
          "internalType": "string[]",
          "name": "_aliens",
          "type": "string[]"
        },
        {
          "internalType": "string[]",
          "name": "_robots",
          "type": "string[]"
        }
      ],
      "name": "initialize",
      "outputs": [],
      "stateMutability": "nonpayable",
      "type": "function"
    },
    {
      "inputs": [
        {
          "internalType": "address",
          "name": "owner",
          "type": "address"
        },
        {
          "internalType": "address",
          "name": "operator",
          "type": "address"
        }
      ],
      "name": "isApprovedForAll",
      "outputs": [
        {
          "internalType": "bool",
          "name": "",
          "type": "bool"
        }
      ],
      "stateMutability": "view",
      "type": "function"
    },
    {
      "inputs": [],
      "name": "name",
      "outputs": [
        {
          "internalType": "string",
          "name": "",
          "type": "string"
        }
      ],
      "stateMutability": "view",
      "type": "function"
    },
    {
      "inputs": [
        {
          "internalType": "uint256",
          "name": "tokenId",
          "type": "uint256"
        }
      ],
      "name": "ownerOf",
      "outputs": [
        {
          "internalType": "address",
          "name": "",
          "type": "address"
        }
      ],
      "stateMutability": "view",
      "type": "function"
    },
    {
      "inputs": [],
      "name": "pause",
      "outputs": [],
      "stateMutability": "nonpayable",
      "type": "function"
    },
    {
      "inputs": [],
      "name": "paused",
      "outputs": [
        {
          "internalType": "bool",
          "name": "",
          "type": "bool"
        }
      ],
      "stateMutability": "view",
      "type": "function"
    },
    {
      "inputs": [
        {
          "internalType": "bytes32",
          "name": "role",
          "type": "bytes32"
        },
        {
          "internalType": "address",
          "name": "account",
          "type": "address"
        }
      ],
      "name": "renounceRole",
      "outputs": [],
      "stateMutability": "nonpayable",
      "type": "function"
    },
    {
      "inputs": [
        {
          "internalType": "bytes32",
          "name": "role",
          "type": "bytes32"
        },
        {
          "internalType": "address",
          "name": "account",
          "type": "address"
        }
      ],
      "name": "revokeRole",
      "outputs": [],
      "stateMutability": "nonpayable",
      "type": "function"
    },
    {
      "inputs": [
        {
          "internalType": "address",
          "name": "to",
          "type": "address"
        }
      ],
      "name": "safeMint",
      "outputs": [
        {
          "internalType": "uint256",
          "name": "tokenId",
          "type": "uint256"
        }
      ],
      "stateMutability": "nonpayable",
      "type": "function"
    },
    {
      "inputs": [
        {
          "internalType": "address",
          "name": "from",
          "type": "address"
        },
        {
          "internalType": "address",
          "name": "to",
          "type": "address"
        },
        {
          "internalType": "uint256",
          "name": "tokenId",
          "type": "uint256"
        }
      ],
      "name": "safeTransferFrom",
      "outputs": [],
      "stateMutability": "nonpayable",
      "type": "function"
    },
    {
      "inputs": [
        {
          "internalType": "address",
          "name": "from",
          "type": "address"
        },
        {
          "internalType": "address",
          "name": "to",
          "type": "address"
        },
        {
          "internalType": "uint256",
          "name": "tokenId",
          "type": "uint256"
        },
        {
          "internalType": "bytes",
          "name": "_data",
          "type": "bytes"
        }
      ],
      "name": "safeTransferFrom",
      "outputs": [],
      "stateMutability": "nonpayable",
      "type": "function"
    },
    {
      "inputs": [
        {
          "internalType": "address",
          "name": "operator",
          "type": "address"
        },
        {
          "internalType": "bool",
          "name": "approved",
          "type": "bool"
        }
      ],
      "name": "setApprovalForAll",
      "outputs": [],
      "stateMutability": "nonpayable",
      "type": "function"
    },
    {
      "inputs": [
        {
          "internalType": "uint256",
          "name": "tokenId",
          "type": "uint256"
        },
        {
          "internalType": "uint256",
          "name": "randomness",
          "type": "uint256"
        }
      ],
      "name": "setRandomness",
      "outputs": [],
      "stateMutability": "nonpayable",
      "type": "function"
    },
    {
      "inputs": [
        {
          "internalType": "bytes4",
          "name": "interfaceId",
          "type": "bytes4"
        }
      ],
      "name": "supportsInterface",
      "outputs": [
        {
          "internalType": "bool",
          "name": "",
          "type": "bool"
        }
      ],
      "stateMutability": "view",
      "type": "function"
    },
    {
      "inputs": [],
      "name": "symbol",
      "outputs": [
        {
          "internalType": "string",
          "name": "",
          "type": "string"
        }
      ],
      "stateMutability": "view",
      "type": "function"
    },
    {
      "inputs": [
        {
          "internalType": "uint256",
          "name": "index",
          "type": "uint256"
        }
      ],
      "name": "tokenByIndex",
      "outputs": [
        {
          "internalType": "uint256",
          "name": "",
          "type": "uint256"
        }
      ],
      "stateMutability": "view",
      "type": "function"
    },
    {
      "inputs": [
        {
          "internalType": "address",
          "name": "owner",
          "type": "address"
        },
        {
          "internalType": "uint256",
          "name": "index",
          "type": "uint256"
        }
      ],
      "name": "tokenOfOwnerByIndex",
      "outputs": [
        {
          "internalType": "uint256",
          "name": "",
          "type": "uint256"
        }
      ],
      "stateMutability": "view",
      "type": "function"
    },
    {
      "inputs": [
        {
          "internalType": "uint256",
          "name": "tokenId",
          "type": "uint256"
        }
      ],
      "name": "tokenURI",
      "outputs": [
        {
          "internalType": "string",
          "name": "output",
          "type": "string"
        }
      ],
      "stateMutability": "view",
      "type": "function"
    },
    {
      "inputs": [],
      "name": "totalSupply",
      "outputs": [
        {
          "internalType": "uint256",
          "name": "",
          "type": "uint256"
        }
      ],
      "stateMutability": "view",
      "type": "function"
    },
    {
      "inputs": [
        {
          "internalType": "address",
          "name": "from",
          "type": "address"
        },
        {
          "internalType": "address",
          "name": "to",
          "type": "address"
        },
        {
          "internalType": "uint256",
          "name": "tokenId",
          "type": "uint256"
        }
      ],
      "name": "transferFrom",
      "outputs": [],
      "stateMutability": "nonpayable",
      "type": "function"
    },
    {
      "inputs": [],
      "name": "unpause",
      "outputs": [],
      "stateMutability": "nonpayable",
      "type": "function"
    },
    {
      "inputs": [
        {
          "internalType": "address",
          "name": "newImplementation",
          "type": "address"
        }
      ],
      "name": "upgradeTo",
      "outputs": [],
      "stateMutability": "nonpayable",
      "type": "function"
    },
    {
      "inputs": [
        {
          "internalType": "address",
          "name": "newImplementation",
          "type": "address"
        },
        {
          "internalType": "bytes",
          "name": "data",
          "type": "bytes"
        }
      ],
      "name": "upgradeToAndCall",
      "outputs": [],
      "stateMutability": "payable",
      "type": "function"
    }
  ],
  "transactionHash": "0xca3964deafbccdc22e2ab6dd4830fa4737b6c27e8bec58a6103fc2446bbadafa",
  "args": [],
  "solcInputHash": "5ae89c40dbd855807a4c1378952f1cdf",
  "bytecode": "0x60a0604052306080523480156200001557600080fd5b50600054610100900460ff16620000335760005460ff16156200003d565b6200003d620000e2565b620000a55760405162461bcd60e51b815260206004820152602e60248201527f496e697469616c697a61626c653a20636f6e747261637420697320616c72656160448201526d191e481a5b9a5d1a585b1a5e995960921b606482015260840160405180910390fd5b600054610100900460ff16158015620000c8576000805461ffff19166101011790555b8015620000db576000805461ff00191690555b5062000106565b6000620000fa306200010060201b620017fc1760201c565b15905090565b3b151590565b608051613be26200013760003960008181610efa01528181610f3a0152818161119d01526111dd0152613be26000f3fe6080604052600436106101ee5760003560e01c80634f1ef2861161010d578063a217fddf116100a0578063d53913931161006f578063d539139314610573578063d547741f14610595578063e63ab1e9146105b5578063e985e9c5146105d7578063f72c0d8b1461062057600080fd5b8063a217fddf146104fe578063a22cb46514610513578063b88d4fde14610533578063c87b56dd1461055357600080fd5b806370a08231116100dc57806370a08231146104945780638456cb59146104b457806391d14854146104c957806395d89b41146104e957600080fd5b80634f1ef286146104295780634f6ccce71461043c5780635c975abb1461045c5780636352211e1461047457600080fd5b8063248a9ca3116101855780633659cfe6116101545780633659cfe6146103b45780633f4ba83a146103d457806340d097c3146103e957806342842e0e1461040957600080fd5b8063248a9ca3146103235780632f2ff15d146103545780632f745c591461037457806336568abe1461039457600080fd5b80630b008baa116101c15780630b008baa146102a457806317ba9993146102c457806318160ddd146102e457806323b872dd1461030357600080fd5b806301ffc9a7146101f357806306fdde0314610228578063081812fc1461024a578063095ea7b314610282575b600080fd5b3480156101ff57600080fd5b5061021361020e366004612f87565b610654565b60405190151581526020015b60405180910390f35b34801561023457600080fd5b5061023d610665565b60405161021f9190612ffc565b34801561025657600080fd5b5061026a61026536600461300f565b6106f7565b6040516001600160a01b03909116815260200161021f565b34801561028e57600080fd5b506102a261029d366004613044565b610791565b005b3480156102b057600080fd5b506102a26102bf3660046131c1565b6108a7565b3480156102d057600080fd5b506102a26102df366004613225565b610ab3565b3480156102f057600080fd5b506099545b60405190815260200161021f565b34801561030f57600080fd5b506102a261031e366004613247565b610d83565b34801561032f57600080fd5b506102f561033e36600461300f565b600090815261012d602052604090206001015490565b34801561036057600080fd5b506102a261036f366004613283565b610db4565b34801561038057600080fd5b506102f561038f366004613044565b610ddb565b3480156103a057600080fd5b506102a26103af366004613283565b610e71565b3480156103c057600080fd5b506102a26103cf3660046132af565b610eef565b3480156103e057600080fd5b506102a2610fb8565b3480156103f557600080fd5b506102f56104043660046132af565b610fd9565b34801561041557600080fd5b506102a2610424366004613247565b611177565b6102a26104373660046132ea565b611192565b34801561044857600080fd5b506102f561045736600461300f565b611248565b34801561046857600080fd5b5060fb5460ff16610213565b34801561048057600080fd5b5061026a61048f36600461300f565b6112db565b3480156104a057600080fd5b506102f56104af3660046132af565b611352565b3480156104c057600080fd5b506102a26113d9565b3480156104d557600080fd5b506102136104e4366004613283565b6113fa565b3480156104f557600080fd5b5061023d611426565b34801561050a57600080fd5b506102f5600081565b34801561051f57600080fd5b506102a261052e36600461332e565b611435565b34801561053f57600080fd5b506102a261054e36600461336a565b611440565b34801561055f57600080fd5b5061023d61056e36600461300f565b611478565b34801561057f57600080fd5b506102f5600080516020613b8d83398151915281565b3480156105a157600080fd5b506102a26105b0366004613283565b6117d5565b3480156105c157600080fd5b506102f5600080516020613b4683398151915281565b3480156105e357600080fd5b506102136105f23660046133d2565b6001600160a01b039182166000908152606a6020908152604080832093909416825291909152205460ff1690565b34801561062c57600080fd5b506102f57f189ab7a9244df0848122154315af71fe140f3db0fe014031783b0946b8c9d2e381565b600061065f82611802565b92915050565b606060658054610674906133fc565b80601f01602080910402602001604051908101604052809291908181526020018280546106a0906133fc565b80156106ed5780601f106106c2576101008083540402835291602001916106ed565b820191906000526020600020905b8154815290600101906020018083116106d057829003601f168201915b5050505050905090565b6000818152606760205260408120546001600160a01b03166107755760405162461bcd60e51b815260206004820152602c60248201527f4552433732313a20617070726f76656420717565727920666f72206e6f6e657860448201526b34b9ba32b73a103a37b5b2b760a11b60648201526084015b60405180910390fd5b506000908152606960205260409020546001600160a01b031690565b600061079c826112db565b9050806001600160a01b0316836001600160a01b0316141561080a5760405162461bcd60e51b815260206004820152602160248201527f4552433732313a20617070726f76616c20746f2063757272656e74206f776e656044820152603960f91b606482015260840161076c565b336001600160a01b0382161480610826575061082681336105f2565b6108985760405162461bcd60e51b815260206004820152603860248201527f4552433732313a20617070726f76652063616c6c6572206973206e6f74206f7760448201527f6e6572206e6f7220617070726f76656420666f7220616c6c0000000000000000606482015260840161076c565b6108a28383611827565b505050565b600054610100900460ff166108c25760005460ff16156108c6565b303b155b6109295760405162461bcd60e51b815260206004820152602e60248201527f496e697469616c697a61626c653a20636f6e747261637420697320616c72656160448201526d191e481a5b9a5d1a585b1a5e995960921b606482015260840161076c565b600054610100900460ff1615801561094b576000805461ffff19166101011790555b6109936040518060400160405280600b81526020016a15195cdd1a5b99c813919560aa1b815250604051806040016040528060038152602001621514d560ea1b815250611895565b61099b6118d6565b6109a36118d6565b6109ab611917565b6109b36118d6565b6109bb61194e565b600080526101c4602090815283516109f8917f900a14da7b74a618a1c29a2c66a3b979a3228cef88a1bb8e8ee5ed807c9db89f9190860190612d9d565b5060016000526101c460209081528251610a37917ff6ccb3c78ad86b3231879707325826c087a2d02dd70eb918b97f248746719e709190850190612d9d565b50610a43600033611975565b610a5b600080516020613b4683398151915233611975565b610a73600080516020613b8d83398151915233611975565b610a9d7f189ab7a9244df0848122154315af71fe140f3db0fe014031783b0946b8c9d2e333611975565b80156108a2576000805461ff0019169055505050565b600080516020613b8d833981519152610acc81336119fc565b6000838152606760205260409020546001600160a01b0316610b305760405162461bcd60e51b815260206004820152601e60248201527f4552433732313a20746f6b656e496420646f6573206e6f742065786973740000604482015260640161076c565b60008211610b805760405162461bcd60e51b815260206004820152601b60248201527f4552433732313a2061626e6f726d616c2072616e646f6d6e6573730000000000604482015260640161076c565b610b88612dfa565b60005b6003811015610bea5760408051602081018690529081018290526060016040516020818303038152906040528051906020012060001c828260038110610bd357610bd361344d565b602002015280610be281613479565b915050610b8b565b5060008481526101c56020526040902060038101805460ff60a81b1916600160a81b17905560018101849055610c216002856134aa565b15610c2d576001610c30565b60005b60038201805460ff60a01b1916600160a01b836001811115610c5457610c54613437565b021790555060038101546101c490600090600160a01b900460ff166001811115610c8057610c80613437565b6001811115610c9157610c91613437565b8152602081019190915260400160002054610cac90856134aa565b60038201805460ff92909216600160b01b0260ff60b01b199092169190911790558151610cdb906064906134aa565b610ce69060016134be565b60038201805460ff92909216600160b81b0260ff60b81b199092169190911790556020820151610d18906064906134aa565b610d239060016134be565b60038201805460ff92909216600160c01b0260ff60c01b199092169190911790556040820151610d55906064906134aa565b610d609060016134be565b8160030160196101000a81548160ff021916908360ff1602179055505050505050565b610d8d3382611a60565b610da95760405162461bcd60e51b815260040161076c906134d6565b6108a2838383611b57565b600082815261012d6020526040902060010154610dd181336119fc565b6108a28383611975565b6000610de683611352565b8210610e485760405162461bcd60e51b815260206004820152602b60248201527f455243373231456e756d657261626c653a206f776e657220696e646578206f7560448201526a74206f6620626f756e647360a81b606482015260840161076c565b506001600160a01b03919091166000908152609760209081526040808320938352929052205490565b6001600160a01b0381163314610ee15760405162461bcd60e51b815260206004820152602f60248201527f416363657373436f6e74726f6c3a2063616e206f6e6c792072656e6f756e636560448201526e103937b632b9903337b91039b2b63360891b606482015260840161076c565b610eeb8282611d02565b5050565b306001600160a01b037f0000000000000000000000000000000000000000000000000000000000000000161415610f385760405162461bcd60e51b815260040161076c90613527565b7f00000000000000000000000000000000000000000000000000000000000000006001600160a01b0316610f6a611d6a565b6001600160a01b031614610f905760405162461bcd60e51b815260040161076c90613573565b610f9981611d98565b60408051600080825260208201909252610fb591839190611dc3565b50565b600080516020613b46833981519152610fd181336119fc565b610fb5611f0e565b6000600080516020613b8d833981519152610ff481336119fc565b6101c35491506110096101c380546001019055565b611011612e18565b6001600160a01b03841660608201524260408083019190915260008481526101c5602090815291902082518051849361104e928492910190612e85565b5060208201516001808301919091556040830151600283015560608301516003830180546001600160a01b039092166001600160a01b031983168117825560808601519391926001600160a81b0319161790600160a01b9084908111156110b7576110b7613437565b021790555060a08201518160030160156101000a81548160ff021916908360038111156110e6576110e6613437565b021790555060c0820151600391909101805460e08401516101008501516101209095015161ffff60b01b19909216600160b01b60ff9586160260ff60b81b191617600160b81b918516919091021761ffff60c01b1916600160c01b9484169490940260ff60c81b191693909317600160c81b92909316919091029190911790556111708484611fa1565b5050919050565b6108a283838360405180602001604052806000815250611440565b306001600160a01b037f00000000000000000000000000000000000000000000000000000000000000001614156111db5760405162461bcd60e51b815260040161076c90613527565b7f00000000000000000000000000000000000000000000000000000000000000006001600160a01b031661120d611d6a565b6001600160a01b0316146112335760405162461bcd60e51b815260040161076c90613573565b61123c82611d98565b610eeb82826001611dc3565b600061125360995490565b82106112b65760405162461bcd60e51b815260206004820152602c60248201527f455243373231456e756d657261626c653a20676c6f62616c20696e646578206f60448201526b7574206f6620626f756e647360a01b606482015260840161076c565b609982815481106112c9576112c961344d565b90600052602060002001549050919050565b6000818152606760205260408120546001600160a01b03168061065f5760405162461bcd60e51b815260206004820152602960248201527f4552433732313a206f776e657220717565727920666f72206e6f6e657869737460448201526832b73a103a37b5b2b760b91b606482015260840161076c565b60006001600160a01b0382166113bd5760405162461bcd60e51b815260206004820152602a60248201527f4552433732313a2062616c616e636520717565727920666f7220746865207a65604482015269726f206164647265737360b01b606482015260840161076c565b506001600160a01b031660009081526068602052604090205490565b600080516020613b468339815191526113f281336119fc565b610fb5611fbb565b600091825261012d602090815260408084206001600160a01b0393909316845291905290205460ff1690565b606060668054610674906133fc565b610eeb338383612036565b61144a3383611a60565b6114665760405162461bcd60e51b815260040161076c906134d6565b61147284848484612105565b50505050565b6000818152606760205260409020546060906001600160a01b03166114df5760405162461bcd60e51b815260206004820152601e60248201527f4552433732313a20746f6b656e496420646f6573206e6f742065786973740000604482015260640161076c565b60008281526101c5602052604080822081516101408101909252805482908290611508906133fc565b80601f0160208091040260200160405190810160405280929190818152602001828054611534906133fc565b80156115815780601f1061155657610100808354040283529160200191611581565b820191906000526020600020905b81548152906001019060200180831161156457829003601f168201915b505050918352505060018281015460208301526002830154604083015260038301546001600160a01b0381166060840152608090920191600160a01b900460ff16908111156115d2576115d2613437565b60018111156115e3576115e3613437565b81526020016003820160159054906101000a900460ff16600381111561160b5761160b613437565b600381111561161c5761161c613437565b81526003919091015460ff600160b01b820481166020840152600160b81b820481166040840152600160c01b820481166060840152600160c81b909104166080909101529050600061166c612138565b6101c460008460800151600181111561168757611687613437565b600181111561169857611698613437565b81526020019081526020016000208360c0015160ff16815481106116be576116be61344d565b906000526020600020016040516020016116d99291906135db565b60408051601f1981840301815291905290506000808360800151600181111561170457611704613437565b1461172c5760405180604001604052806005815260200164149bd89bdd60da1b81525061174b565b6040518060400160405280600581526020016420b634b2b760d91b8152505b90506117ac826117618560e0015160ff16612158565b61177286610100015160ff16612158565b61178387610120015160ff16612158565b8560405160200161179895949392919061368c565b604051602081830303815290604052612256565b6040516020016117bc919061389f565b6040516020818303038152906040529350505050919050565b600082815261012d60205260409020600101546117f281336119fc565b6108a28383611d02565b3b151590565b60006001600160e01b03198216637965db0b60e01b148061065f575061065f826123bc565b600081815260696020526040902080546001600160a01b0319166001600160a01b038416908117909155819061185c826112db565b6001600160a01b03167f8c5be1e5ebec7d5bd14f71427d1e84f3dd0314c0f7b2291e5b200ac8c7c3b92560405160405180910390a45050565b600054610100900460ff166118bc5760405162461bcd60e51b815260040161076c906138e4565b6118c46123e1565b6118cc6123e1565b610eeb8282612408565b600054610100900460ff166118fd5760405162461bcd60e51b815260040161076c906138e4565b6119056123e1565b61190d6123e1565b6119156123e1565b565b600054610100900460ff1661193e5760405162461bcd60e51b815260040161076c906138e4565b6119466123e1565b611915612456565b600054610100900460ff166119055760405162461bcd60e51b815260040161076c906138e4565b61197f82826113fa565b610eeb57600082815261012d602090815260408083206001600160a01b03851684529091529020805460ff191660011790556119b83390565b6001600160a01b0316816001600160a01b0316837f2f8788117e7eff1d82e926ec794901d17c78024a50270940304540a733656f0d60405160405180910390a45050565b611a0682826113fa565b610eeb57611a1e816001600160a01b03166014612489565b611a29836020612489565b604051602001611a3a92919061392f565b60408051601f198184030181529082905262461bcd60e51b825261076c91600401612ffc565b6000818152606760205260408120546001600160a01b0316611ad95760405162461bcd60e51b815260206004820152602c60248201527f4552433732313a206f70657261746f7220717565727920666f72206e6f6e657860448201526b34b9ba32b73a103a37b5b2b760a11b606482015260840161076c565b6000611ae4836112db565b9050806001600160a01b0316846001600160a01b03161480611b1f5750836001600160a01b0316611b14846106f7565b6001600160a01b0316145b80611b4f57506001600160a01b038082166000908152606a602090815260408083209388168352929052205460ff165b949350505050565b826001600160a01b0316611b6a826112db565b6001600160a01b031614611bd25760405162461bcd60e51b815260206004820152602960248201527f4552433732313a207472616e73666572206f6620746f6b656e2074686174206960448201526839903737ba1037bbb760b91b606482015260840161076c565b6001600160a01b038216611c345760405162461bcd60e51b8152602060048201526024808201527f4552433732313a207472616e7366657220746f20746865207a65726f206164646044820152637265737360e01b606482015260840161076c565b611c3f83838361262c565b611c4a600082611827565b6001600160a01b0383166000908152606860205260408120805460019290611c739084906139a4565b90915550506001600160a01b0382166000908152606860205260408120805460019290611ca19084906134be565b909155505060008181526067602052604080822080546001600160a01b0319166001600160a01b0386811691821790925591518493918716917fddf252ad1be2c89b69c2b068fc378daa952ba7f163c4a11628f55a4df523b3ef91a4505050565b611d0c82826113fa565b15610eeb57600082815261012d602090815260408083206001600160a01b0385168085529252808320805460ff1916905551339285917ff6391f5c32d9c69d2a47ea670b442974b53935d1edc7fd64eb21e047a839171b9190a45050565b7f360894a13ba1a3210667c828492db98dca3e2076cc3735a920a3ca505d382bbc546001600160a01b031690565b7f189ab7a9244df0848122154315af71fe140f3db0fe014031783b0946b8c9d2e3610eeb81336119fc565b6000611dcd611d6a565b9050611dd88461267d565b600083511180611de55750815b15611df657611df48484612722565b505b7f4910fdfa16fed3260ed0e7147f7cc6da11a60208b5b9406d12a635614ffd9143805460ff16611f0757805460ff191660011781556040516001600160a01b0383166024820152611e7590869060440160408051601f198184030181529190526020810180516001600160e01b0316631b2ce7f360e11b179052612722565b50805460ff19168155611e86611d6a565b6001600160a01b0316826001600160a01b031614611efe5760405162461bcd60e51b815260206004820152602f60248201527f45524331393637557067726164653a207570677261646520627265616b73206660448201526e75727468657220757067726164657360881b606482015260840161076c565b611f078561280d565b5050505050565b60fb5460ff16611f575760405162461bcd60e51b815260206004820152601460248201527314185d5cd8589b194e881b9bdd081c185d5cd95960621b604482015260640161076c565b60fb805460ff191690557f5db9ee0a495bf2e6ff9c91a7834c1ba4fdd244a5e8aa4e537bd38aeae4b073aa335b6040516001600160a01b03909116815260200160405180910390a1565b610eeb82826040518060200160405280600081525061284d565b60fb5460ff16156120015760405162461bcd60e51b815260206004820152601060248201526f14185d5cd8589b194e881c185d5cd95960821b604482015260640161076c565b60fb805460ff191660011790557f62e78cea01bee320cd4e420270b5ea74000d11b0c9f74754ebdbfc544b05a258611f843390565b816001600160a01b0316836001600160a01b031614156120985760405162461bcd60e51b815260206004820152601960248201527f4552433732313a20617070726f766520746f2063616c6c657200000000000000604482015260640161076c565b6001600160a01b038381166000818152606a6020908152604080832094871680845294825291829020805460ff191686151590811790915591519182527f17307eab39ab6107e8899845ad3d59bd9653f200f220920489ca2b5937696c31910160405180910390a3505050565b612110848484611b57565b61211c84848484612880565b6114725760405162461bcd60e51b815260040161076c906139bb565b6060604051806060016040528060228152602001613b2460229139905090565b60608161217c5750506040805180820190915260018152600360fc1b602082015290565b8160005b81156121a6578061219081613479565b915061219f9050600a83613a0d565b9150612180565b60008167ffffffffffffffff8111156121c1576121c161306e565b6040519080825280601f01601f1916602001820160405280156121eb576020820181803683370190505b5090505b8415611b4f576122006001836139a4565b915061220d600a866134aa565b6122189060306134be565b60f81b81838151811061222d5761222d61344d565b60200101906001600160f81b031916908160001a90535061224f600a86613a0d565b94506121ef565b805160609080612276575050604080516020810190915260008152919050565b600060036122858360026134be565b61228f9190613a0d565b61229a906004613a21565b905060006122a98260206134be565b67ffffffffffffffff8111156122c1576122c161306e565b6040519080825280601f01601f1916602001820160405280156122eb576020820181803683370190505b5090506000604051806060016040528060408152602001613ae4604091399050600181016020830160005b86811015612377576003818a01810151603f601282901c8116860151600c83901c8216870151600684901c831688015192909316870151600891821b60ff94851601821b92841692909201901b91160160e01b835260049092019101612316565b50600386066001811461239157600281146123a2576123ae565b613d3d60f01b6001198301526123ae565b603d60f81b6000198301525b505050918152949350505050565b60006001600160e01b0319821663780e9d6360e01b148061065f575061065f8261297e565b600054610100900460ff166119155760405162461bcd60e51b815260040161076c906138e4565b600054610100900460ff1661242f5760405162461bcd60e51b815260040161076c906138e4565b8151612442906065906020850190612e85565b5080516108a2906066906020840190612e85565b600054610100900460ff1661247d5760405162461bcd60e51b815260040161076c906138e4565b60fb805460ff19169055565b60606000612498836002613a21565b6124a39060026134be565b67ffffffffffffffff8111156124bb576124bb61306e565b6040519080825280601f01601f1916602001820160405280156124e5576020820181803683370190505b509050600360fc1b816000815181106125005761250061344d565b60200101906001600160f81b031916908160001a905350600f60fb1b8160018151811061252f5761252f61344d565b60200101906001600160f81b031916908160001a9053506000612553846002613a21565b61255e9060016134be565b90505b60018111156125d6576f181899199a1a9b1b9c1cb0b131b232b360811b85600f16601081106125925761259261344d565b1a60f81b8282815181106125a8576125a861344d565b60200101906001600160f81b031916908160001a90535060049490941c936125cf81613a40565b9050612561565b5083156126255760405162461bcd60e51b815260206004820181905260248201527f537472696e67733a20686578206c656e67746820696e73756666696369656e74604482015260640161076c565b9392505050565b60fb5460ff16156126725760405162461bcd60e51b815260206004820152601060248201526f14185d5cd8589b194e881c185d5cd95960821b604482015260640161076c565b6108a28383836129ce565b803b6126e15760405162461bcd60e51b815260206004820152602d60248201527f455243313936373a206e657720696d706c656d656e746174696f6e206973206e60448201526c1bdd08184818dbdb9d1c9858dd609a1b606482015260840161076c565b7f360894a13ba1a3210667c828492db98dca3e2076cc3735a920a3ca505d382bbc80546001600160a01b0319166001600160a01b0392909216919091179055565b6060823b6127815760405162461bcd60e51b815260206004820152602660248201527f416464726573733a2064656c65676174652063616c6c20746f206e6f6e2d636f6044820152651b9d1c9858dd60d21b606482015260840161076c565b600080846001600160a01b03168460405161279c9190613a57565b600060405180830381855af49150503d80600081146127d7576040519150601f19603f3d011682016040523d82523d6000602084013e6127dc565b606091505b50915091506128048282604051806060016040528060278152602001613b6660279139612a86565b95945050505050565b6128168161267d565b6040516001600160a01b038216907fbc7cd75a20ee27fd9adebab32041f755214dbc6bffa90cc0225b39da2e5c2d3b90600090a250565b6128578383612abf565b6128646000848484612880565b6108a25760405162461bcd60e51b815260040161076c906139bb565b60006001600160a01b0384163b1561297357604051630a85bd0160e11b81526001600160a01b0385169063150b7a02906128c4903390899088908890600401613a73565b6020604051808303816000875af19250505080156128ff575060408051601f3d908101601f191682019092526128fc91810190613ab0565b60015b612959573d80801561292d576040519150601f19603f3d011682016040523d82523d6000602084013e612932565b606091505b5080516129515760405162461bcd60e51b815260040161076c906139bb565b805181602001fd5b6001600160e01b031916630a85bd0160e11b149050611b4f565b506001949350505050565b60006001600160e01b031982166380ac58cd60e01b14806129af57506001600160e01b03198216635b5e139f60e01b145b8061065f57506301ffc9a760e01b6001600160e01b031983161461065f565b6001600160a01b038316612a2957612a2481609980546000838152609a60205260408120829055600182018355919091527f72a152ddfb8e864297c917af52ea6c1c68aead0fee1a62673fcc7e0c94979d000155565b612a4c565b816001600160a01b0316836001600160a01b031614612a4c57612a4c8382612c0d565b6001600160a01b038216612a63576108a281612caa565b826001600160a01b0316826001600160a01b0316146108a2576108a28282612d59565b60608315612a95575081612625565b825115612aa55782518084602001fd5b8160405162461bcd60e51b815260040161076c9190612ffc565b6001600160a01b038216612b155760405162461bcd60e51b815260206004820181905260248201527f4552433732313a206d696e7420746f20746865207a65726f2061646472657373604482015260640161076c565b6000818152606760205260409020546001600160a01b031615612b7a5760405162461bcd60e51b815260206004820152601c60248201527f4552433732313a20746f6b656e20616c7265616479206d696e74656400000000604482015260640161076c565b612b866000838361262c565b6001600160a01b0382166000908152606860205260408120805460019290612baf9084906134be565b909155505060008181526067602052604080822080546001600160a01b0319166001600160a01b03861690811790915590518392907fddf252ad1be2c89b69c2b068fc378daa952ba7f163c4a11628f55a4df523b3ef908290a45050565b60006001612c1a84611352565b612c2491906139a4565b600083815260986020526040902054909150808214612c77576001600160a01b03841660009081526097602090815260408083208584528252808320548484528184208190558352609890915290208190555b5060009182526098602090815260408084208490556001600160a01b039094168352609781528383209183525290812055565b609954600090612cbc906001906139a4565b6000838152609a602052604081205460998054939450909284908110612ce457612ce461344d565b906000526020600020015490508060998381548110612d0557612d0561344d565b6000918252602080832090910192909255828152609a90915260408082208490558582528120556099805480612d3d57612d3d613acd565b6001900381819060005260206000200160009055905550505050565b6000612d6483611352565b6001600160a01b039093166000908152609760209081526040808320868452825280832085905593825260989052919091209190915550565b828054828255906000526020600020908101928215612dea579160200282015b82811115612dea5782518051612dda918491602090910190612e85565b5091602001919060010190612dbd565b50612df6929150612f05565b5090565b60405180606001604052806003906020820280368337509192915050565b60405180610140016040528060608152602001600081526020016000815260200160006001600160a01b0316815260200160006001811115612e5c57612e5c613437565b815260200160008152600060208201819052604082018190526060820181905260809091015290565b828054612e91906133fc565b90600052602060002090601f016020900481019282612eb35760008555612ef9565b82601f10612ecc57805160ff1916838001178555612ef9565b82800160010185558215612ef9579182015b82811115612ef9578251825591602001919060010190612ede565b50612df6929150612f22565b80821115612df6576000612f198282612f37565b50600101612f05565b5b80821115612df65760008155600101612f23565b508054612f43906133fc565b6000825580601f10612f53575050565b601f016020900490600052602060002090810190610fb59190612f22565b6001600160e01b031981168114610fb557600080fd5b600060208284031215612f9957600080fd5b813561262581612f71565b60005b83811015612fbf578181015183820152602001612fa7565b838111156114725750506000910152565b60008151808452612fe8816020860160208601612fa4565b601f01601f19169290920160200192915050565b6020815260006126256020830184612fd0565b60006020828403121561302157600080fd5b5035919050565b80356001600160a01b038116811461303f57600080fd5b919050565b6000806040838503121561305757600080fd5b61306083613028565b946020939093013593505050565b634e487b7160e01b600052604160045260246000fd5b604051601f8201601f1916810167ffffffffffffffff811182821017156130ad576130ad61306e565b604052919050565b600067ffffffffffffffff8311156130cf576130cf61306e565b6130e2601f8401601f1916602001613084565b90508281528383830111156130f657600080fd5b828260208301376000602084830101529392505050565b600082601f83011261311e57600080fd5b8135602067ffffffffffffffff8083111561313b5761313b61306e565b8260051b61314a838201613084565b938452858101830193838101908886111561316457600080fd5b84880192505b858310156131b5578235848111156131825760008081fd5b8801603f81018a136131945760008081fd5b6131a58a87830135604084016130b5565b835250918401919084019061316a565b98975050505050505050565b600080604083850312156131d457600080fd5b823567ffffffffffffffff808211156131ec57600080fd5b6131f88683870161310d565b9350602085013591508082111561320e57600080fd5b5061321b8582860161310d565b9150509250929050565b6000806040838503121561323857600080fd5b50508035926020909101359150565b60008060006060848603121561325c57600080fd5b61326584613028565b925061327360208501613028565b9150604084013590509250925092565b6000806040838503121561329657600080fd5b823591506132a660208401613028565b90509250929050565b6000602082840312156132c157600080fd5b61262582613028565b600082601f8301126132db57600080fd5b612625838335602085016130b5565b600080604083850312156132fd57600080fd5b61330683613028565b9150602083013567ffffffffffffffff81111561332257600080fd5b61321b858286016132ca565b6000806040838503121561334157600080fd5b61334a83613028565b91506020830135801515811461335f57600080fd5b809150509250929050565b6000806000806080858703121561338057600080fd5b61338985613028565b935061339760208601613028565b925060408501359150606085013567ffffffffffffffff8111156133ba57600080fd5b6133c6878288016132ca565b91505092959194509250565b600080604083850312156133e557600080fd5b6133ee83613028565b91506132a660208401613028565b600181811c9082168061341057607f821691505b6020821081141561343157634e487b7160e01b600052602260045260246000fd5b50919050565b634e487b7160e01b600052602160045260246000fd5b634e487b7160e01b600052603260045260246000fd5b634e487b7160e01b600052601160045260246000fd5b600060001982141561348d5761348d613463565b5060010190565b634e487b7160e01b600052601260045260246000fd5b6000826134b9576134b9613494565b500690565b600082198211156134d1576134d1613463565b500190565b60208082526031908201527f4552433732313a207472616e736665722063616c6c6572206973206e6f74206f6040820152701ddb995c881b9bdc88185c1c1c9bdd9959607a1b606082015260800190565b6020808252602c908201527f46756e6374696f6e206d7573742062652063616c6c6564207468726f7567682060408201526b19195b1959d85d1958d85b1b60a21b606082015260800190565b6020808252602c908201527f46756e6374696f6e206d7573742062652063616c6c6564207468726f7567682060408201526b6163746976652070726f787960a01b606082015260800190565b600081516135d1818560208601612fa4565b9290920192915050565b6000835160206135ee8285838901612fa4565b845491840191600090600181811c908083168061360c57607f831692505b85831081141561362a57634e487b7160e01b85526022600452602485fd5b80801561363e576001811461364f5761367c565b60ff1985168852838801955061367c565b60008b81526020902060005b858110156136745781548a82015290840190880161365b565b505083880195505b50939a9950505050505050505050565b7f7b226e616d65223a202254657374222c20226465736372697074696f6e223a2081527f22416c69656e20616e6420526f626f74204e465420636861726163746572732260208201527f2c20226261636b67726f756e645f636f6c6f72223a2022413946344445222c206040820152691134b6b0b3b2911d101160b11b60608201526000865161372381606a850160208b01612fa4565b7f222c20226174747269627574657322203a205b7b2274726169745f7479706522606a918401918201527f3a2022537472656e677468222c20226d61785f76616c7565223a203130302c20608a820152680113b30b63ab2911d160bd1b60aa82015286516137988160b3840160208b01612fa4565b7f7d2c207b2274726169745f74797065223a20225370656564222c20226d61785f60b392909101918201527503b30b63ab2911d101898181610113b30b63ab2911d160551b60d38201526131b561388f61388961385361384d6137fe60e987018c6135bf565b7f7d2c207b2274726169745f74797065223a20225374616d696e61222c20226d6181527f785f76616c7565223a203130302c202276616c7565223a200000000000000000602082015260380190565b896135bf565b7f7d2c207b2274726169745f74797065223a202254797065222c202276616c7565815263111d101160e11b602082015260240190565b866135bf565b63227d5d7d60e01b815260040190565b7f646174613a6170706c69636174696f6e2f6a736f6e3b6261736536342c0000008152600082516138d781601d850160208701612fa4565b91909101601d0192915050565b6020808252602b908201527f496e697469616c697a61626c653a20636f6e7472616374206973206e6f74206960408201526a6e697469616c697a696e6760a81b606082015260800190565b7f416363657373436f6e74726f6c3a206163636f756e7420000000000000000000815260008351613967816017850160208801612fa4565b7001034b99036b4b9b9b4b733903937b6329607d1b6017918401918201528351613998816028840160208801612fa4565b01602801949350505050565b6000828210156139b6576139b6613463565b500390565b60208082526032908201527f4552433732313a207472616e7366657220746f206e6f6e20455243373231526560408201527131b2b4bb32b91034b6b83632b6b2b73a32b960711b606082015260800190565b600082613a1c57613a1c613494565b500490565b6000816000190483118215151615613a3b57613a3b613463565b500290565b600081613a4f57613a4f613463565b506000190190565b60008251613a69818460208701612fa4565b9190910192915050565b6001600160a01b0385811682528416602082015260408101839052608060608201819052600090613aa690830184612fd0565b9695505050505050565b600060208284031215613ac257600080fd5b815161262581612f71565b634e487b7160e01b600052603160045260246000fdfe4142434445464748494a4b4c4d4e4f505152535455565758595a6162636465666768696a6b6c6d6e6f707172737475767778797a303132333435363738392b2f68747470733a2f2f676174657761792e70696e6174612e636c6f75642f697066732f65d7a28e3265b37a6474929f336521b332c1681b933f6cb9f3376673440d862a416464726573733a206c6f772d6c6576656c2064656c65676174652063616c6c206661696c65649f2df0fed2c77648de5860a4cc508cd0818c85b8b8a1ab4ceeef8d981c8956a6a2646970667358221220b889d5fb052fdf0d9c38bfdb26bec7c39d7941c1768a2ff41f60509b9ec9279f64736f6c634300080b0033",
  "devdoc": {
    "kind": "dev",
    "methods": {
      "approve(address,uint256)": {
        "details": "See {IERC721-approve}."
      },
      "balanceOf(address)": {
        "details": "See {IERC721-balanceOf}."
      },
      "getApproved(uint256)": {
        "details": "See {IERC721-getApproved}."
      },
      "getRoleAdmin(bytes32)": {
        "details": "Returns the admin role that controls `role`. See {grantRole} and {revokeRole}. To change a role's admin, use {_setRoleAdmin}."
      },
      "grantRole(bytes32,address)": {
        "details": "Grants `role` to `account`. If `account` had not been already granted `role`, emits a {RoleGranted} event. Requirements: - the caller must have ``role``'s admin role."
      },
      "hasRole(bytes32,address)": {
        "details": "Returns `true` if `account` has been granted `role`."
      },
      "isApprovedForAll(address,address)": {
        "details": "See {IERC721-isApprovedForAll}."
      },
      "name()": {
        "details": "See {IERC721Metadata-name}."
      },
      "ownerOf(uint256)": {
        "details": "See {IERC721-ownerOf}."
      },
      "paused()": {
        "details": "Returns true if the contract is paused, and false otherwise."
      },
      "renounceRole(bytes32,address)": {
        "details": "Revokes `role` from the calling account. Roles are often managed via {grantRole} and {revokeRole}: this function's purpose is to provide a mechanism for accounts to lose their privileges if they are compromised (such as when a trusted device is misplaced). If the calling account had been revoked `role`, emits a {RoleRevoked} event. Requirements: - the caller must be `account`."
      },
      "revokeRole(bytes32,address)": {
        "details": "Revokes `role` from `account`. If `account` had been granted `role`, emits a {RoleRevoked} event. Requirements: - the caller must have ``role``'s admin role."
      },
      "safeTransferFrom(address,address,uint256)": {
        "details": "See {IERC721-safeTransferFrom}."
      },
      "safeTransferFrom(address,address,uint256,bytes)": {
        "details": "See {IERC721-safeTransferFrom}."
      },
      "setApprovalForAll(address,bool)": {
        "details": "See {IERC721-setApprovalForAll}."
      },
      "symbol()": {
        "details": "See {IERC721Metadata-symbol}."
      },
      "tokenByIndex(uint256)": {
        "details": "See {IERC721Enumerable-tokenByIndex}."
      },
      "tokenOfOwnerByIndex(address,uint256)": {
        "details": "See {IERC721Enumerable-tokenOfOwnerByIndex}."
      },
      "totalSupply()": {
        "details": "See {IERC721Enumerable-totalSupply}."
      },
      "transferFrom(address,address,uint256)": {
        "details": "See {IERC721-transferFrom}."
      },
      "upgradeTo(address)": {
        "details": "Upgrade the implementation of the proxy to `newImplementation`. Calls {_authorizeUpgrade}. Emits an {Upgraded} event."
      },
      "upgradeToAndCall(address,bytes)": {
        "details": "Upgrade the implementation of the proxy to `newImplementation`, and subsequently execute the function call encoded in `data`. Calls {_authorizeUpgrade}. Emits an {Upgraded} event."
      }
    },
    "version": 1
  },
  "userdoc": {
    "kind": "user",
    "methods": {},
    "version": 1
  },
  "storageLayout": {
    "storage": [
      {
        "astId": 3000,
        "contract": "contracts/CharacterNFT.sol:CharacterNFT",
        "label": "_initialized",
        "offset": 0,
        "slot": "0",
        "type": "t_bool"
      },
      {
        "astId": 3003,
        "contract": "contracts/CharacterNFT.sol:CharacterNFT",
        "label": "_initializing",
        "offset": 1,
        "slot": "0",
        "type": "t_bool"
      },
      {
        "astId": 5212,
        "contract": "contracts/CharacterNFT.sol:CharacterNFT",
        "label": "__gap",
        "offset": 0,
        "slot": "1",
        "type": "t_array(t_uint256)50_storage"
      },
      {
        "astId": 5595,
        "contract": "contracts/CharacterNFT.sol:CharacterNFT",
        "label": "__gap",
        "offset": 0,
        "slot": "51",
        "type": "t_array(t_uint256)50_storage"
      },
      {
        "astId": 3378,
        "contract": "contracts/CharacterNFT.sol:CharacterNFT",
        "label": "_name",
        "offset": 0,
        "slot": "101",
        "type": "t_string_storage"
      },
      {
        "astId": 3380,
        "contract": "contracts/CharacterNFT.sol:CharacterNFT",
        "label": "_symbol",
        "offset": 0,
        "slot": "102",
        "type": "t_string_storage"
      },
      {
        "astId": 3384,
        "contract": "contracts/CharacterNFT.sol:CharacterNFT",
        "label": "_owners",
        "offset": 0,
        "slot": "103",
        "type": "t_mapping(t_uint256,t_address)"
      },
      {
        "astId": 3388,
        "contract": "contracts/CharacterNFT.sol:CharacterNFT",
        "label": "_balances",
        "offset": 0,
        "slot": "104",
        "type": "t_mapping(t_address,t_uint256)"
      },
      {
        "astId": 3392,
        "contract": "contracts/CharacterNFT.sol:CharacterNFT",
        "label": "_tokenApprovals",
        "offset": 0,
        "slot": "105",
        "type": "t_mapping(t_uint256,t_address)"
      },
      {
        "astId": 3398,
        "contract": "contracts/CharacterNFT.sol:CharacterNFT",
        "label": "_operatorApprovals",
        "offset": 0,
        "slot": "106",
        "type": "t_mapping(t_address,t_mapping(t_address,t_bool))"
      },
      {
        "astId": 4209,
        "contract": "contracts/CharacterNFT.sol:CharacterNFT",
        "label": "__gap",
        "offset": 0,
        "slot": "107",
        "type": "t_array(t_uint256)44_storage"
      },
      {
        "astId": 4383,
        "contract": "contracts/CharacterNFT.sol:CharacterNFT",
        "label": "_ownedTokens",
        "offset": 0,
        "slot": "151",
        "type": "t_mapping(t_address,t_mapping(t_uint256,t_uint256))"
      },
      {
        "astId": 4387,
        "contract": "contracts/CharacterNFT.sol:CharacterNFT",
        "label": "_ownedTokensIndex",
        "offset": 0,
        "slot": "152",
        "type": "t_mapping(t_uint256,t_uint256)"
      },
      {
        "astId": 4390,
        "contract": "contracts/CharacterNFT.sol:CharacterNFT",
        "label": "_allTokens",
        "offset": 0,
        "slot": "153",
        "type": "t_array(t_uint256)dyn_storage"
      },
      {
        "astId": 4394,
        "contract": "contracts/CharacterNFT.sol:CharacterNFT",
        "label": "_allTokensIndex",
        "offset": 0,
        "slot": "154",
        "type": "t_mapping(t_uint256,t_uint256)"
      },
      {
        "astId": 4709,
        "contract": "contracts/CharacterNFT.sol:CharacterNFT",
        "label": "__gap",
        "offset": 0,
        "slot": "155",
        "type": "t_array(t_uint256)46_storage"
      },
      {
        "astId": 4747,
        "contract": "contracts/CharacterNFT.sol:CharacterNFT",
        "label": "_tokenURIs",
        "offset": 0,
        "slot": "201",
        "type": "t_mapping(t_uint256,t_string_storage)"
      },
      {
        "astId": 4865,
        "contract": "contracts/CharacterNFT.sol:CharacterNFT",
        "label": "__gap",
        "offset": 0,
        "slot": "202",
        "type": "t_array(t_uint256)49_storage"
      },
      {
        "astId": 3199,
        "contract": "contracts/CharacterNFT.sol:CharacterNFT",
        "label": "_paused",
        "offset": 0,
        "slot": "251",
        "type": "t_bool"
      },
      {
        "astId": 3290,
        "contract": "contracts/CharacterNFT.sol:CharacterNFT",
        "label": "__gap",
        "offset": 0,
        "slot": "252",
        "type": "t_array(t_uint256)49_storage"
      },
      {
        "astId": 2224,
        "contract": "contracts/CharacterNFT.sol:CharacterNFT",
        "label": "_roles",
        "offset": 0,
        "slot": "301",
        "type": "t_mapping(t_bytes32,t_struct(RoleData)2219_storage)"
      },
      {
        "astId": 2511,
        "contract": "contracts/CharacterNFT.sol:CharacterNFT",
        "label": "__gap",
        "offset": 0,
        "slot": "302",
        "type": "t_array(t_uint256)49_storage"
      },
      {
        "astId": 2982,
        "contract": "contracts/CharacterNFT.sol:CharacterNFT",
        "label": "__gap",
        "offset": 0,
        "slot": "351",
        "type": "t_array(t_uint256)50_storage"
      },
      {
        "astId": 3177,
        "contract": "contracts/CharacterNFT.sol:CharacterNFT",
        "label": "__gap",
        "offset": 0,
        "slot": "401",
        "type": "t_array(t_uint256)50_storage"
      },
      {
        "astId": 6089,
        "contract": "contracts/CharacterNFT.sol:CharacterNFT",
        "label": "_tokenIdCounter",
        "offset": 0,
        "slot": "451",
        "type": "t_struct(Counter)5219_storage"
      },
      {
        "astId": 6095,
        "contract": "contracts/CharacterNFT.sol:CharacterNFT",
        "label": "_images",
        "offset": 0,
        "slot": "452",
        "type": "t_mapping(t_enum(Type)6063,t_array(t_string_storage)dyn_storage)"
      },
      {
        "astId": 6100,
        "contract": "contracts/CharacterNFT.sol:CharacterNFT",
        "label": "_characters",
        "offset": 0,
        "slot": "453",
        "type": "t_mapping(t_uint256,t_struct(Character)6086_storage)"
      }
    ],
    "types": {
      "t_address": {
        "encoding": "inplace",
        "label": "address",
        "numberOfBytes": "20"
      },
      "t_array(t_string_storage)dyn_storage": {
        "base": "t_string_storage",
        "encoding": "dynamic_array",
        "label": "string[]",
        "numberOfBytes": "32"
      },
      "t_array(t_uint256)44_storage": {
        "base": "t_uint256",
        "encoding": "inplace",
        "label": "uint256[44]",
        "numberOfBytes": "1408"
      },
      "t_array(t_uint256)46_storage": {
        "base": "t_uint256",
        "encoding": "inplace",
        "label": "uint256[46]",
        "numberOfBytes": "1472"
      },
      "t_array(t_uint256)49_storage": {
        "base": "t_uint256",
        "encoding": "inplace",
        "label": "uint256[49]",
        "numberOfBytes": "1568"
      },
      "t_array(t_uint256)50_storage": {
        "base": "t_uint256",
        "encoding": "inplace",
        "label": "uint256[50]",
        "numberOfBytes": "1600"
      },
      "t_array(t_uint256)dyn_storage": {
        "base": "t_uint256",
        "encoding": "dynamic_array",
        "label": "uint256[]",
        "numberOfBytes": "32"
      },
      "t_bool": {
        "encoding": "inplace",
        "label": "bool",
        "numberOfBytes": "1"
      },
      "t_bytes32": {
        "encoding": "inplace",
        "label": "bytes32",
        "numberOfBytes": "32"
      },
      "t_enum(Status)6060": {
        "encoding": "inplace",
        "label": "enum CharacterNFT.Status",
        "numberOfBytes": "1"
      },
      "t_enum(Type)6063": {
        "encoding": "inplace",
        "label": "enum CharacterNFT.Type",
        "numberOfBytes": "1"
      },
      "t_mapping(t_address,t_bool)": {
        "encoding": "mapping",
        "key": "t_address",
        "label": "mapping(address => bool)",
        "numberOfBytes": "32",
        "value": "t_bool"
      },
      "t_mapping(t_address,t_mapping(t_address,t_bool))": {
        "encoding": "mapping",
        "key": "t_address",
        "label": "mapping(address => mapping(address => bool))",
        "numberOfBytes": "32",
        "value": "t_mapping(t_address,t_bool)"
      },
      "t_mapping(t_address,t_mapping(t_uint256,t_uint256))": {
        "encoding": "mapping",
        "key": "t_address",
        "label": "mapping(address => mapping(uint256 => uint256))",
        "numberOfBytes": "32",
        "value": "t_mapping(t_uint256,t_uint256)"
      },
      "t_mapping(t_address,t_uint256)": {
        "encoding": "mapping",
        "key": "t_address",
        "label": "mapping(address => uint256)",
        "numberOfBytes": "32",
        "value": "t_uint256"
      },
      "t_mapping(t_bytes32,t_struct(RoleData)2219_storage)": {
        "encoding": "mapping",
        "key": "t_bytes32",
        "label": "mapping(bytes32 => struct AccessControlUpgradeable.RoleData)",
        "numberOfBytes": "32",
        "value": "t_struct(RoleData)2219_storage"
      },
      "t_mapping(t_enum(Type)6063,t_array(t_string_storage)dyn_storage)": {
        "encoding": "mapping",
        "key": "t_enum(Type)6063",
        "label": "mapping(enum CharacterNFT.Type => string[])",
        "numberOfBytes": "32",
        "value": "t_array(t_string_storage)dyn_storage"
      },
      "t_mapping(t_uint256,t_address)": {
        "encoding": "mapping",
        "key": "t_uint256",
        "label": "mapping(uint256 => address)",
        "numberOfBytes": "32",
        "value": "t_address"
      },
      "t_mapping(t_uint256,t_string_storage)": {
        "encoding": "mapping",
        "key": "t_uint256",
        "label": "mapping(uint256 => string)",
        "numberOfBytes": "32",
        "value": "t_string_storage"
      },
      "t_mapping(t_uint256,t_struct(Character)6086_storage)": {
        "encoding": "mapping",
        "key": "t_uint256",
        "label": "mapping(uint256 => struct CharacterNFT.Character)",
        "numberOfBytes": "32",
        "value": "t_struct(Character)6086_storage"
      },
      "t_mapping(t_uint256,t_uint256)": {
        "encoding": "mapping",
        "key": "t_uint256",
        "label": "mapping(uint256 => uint256)",
        "numberOfBytes": "32",
        "value": "t_uint256"
      },
      "t_string_storage": {
        "encoding": "bytes",
        "label": "string",
        "numberOfBytes": "32"
      },
      "t_struct(Character)6086_storage": {
        "encoding": "inplace",
        "label": "struct CharacterNFT.Character",
        "members": [
          {
            "astId": 6065,
            "contract": "contracts/CharacterNFT.sol:CharacterNFT",
            "label": "name",
            "offset": 0,
            "slot": "0",
            "type": "t_string_storage"
          },
          {
            "astId": 6067,
            "contract": "contracts/CharacterNFT.sol:CharacterNFT",
            "label": "dna",
            "offset": 0,
            "slot": "1",
            "type": "t_uint256"
          },
          {
            "astId": 6069,
            "contract": "contracts/CharacterNFT.sol:CharacterNFT",
            "label": "createdAt",
            "offset": 0,
            "slot": "2",
            "type": "t_uint256"
          },
          {
            "astId": 6071,
            "contract": "contracts/CharacterNFT.sol:CharacterNFT",
            "label": "owner",
            "offset": 0,
            "slot": "3",
            "type": "t_address"
          },
          {
            "astId": 6074,
            "contract": "contracts/CharacterNFT.sol:CharacterNFT",
            "label": "race",
            "offset": 20,
            "slot": "3",
            "type": "t_enum(Type)6063"
          },
          {
            "astId": 6077,
            "contract": "contracts/CharacterNFT.sol:CharacterNFT",
            "label": "status",
            "offset": 21,
            "slot": "3",
            "type": "t_enum(Status)6060"
          },
          {
            "astId": 6079,
            "contract": "contracts/CharacterNFT.sol:CharacterNFT",
            "label": "subtype",
            "offset": 22,
            "slot": "3",
            "type": "t_uint8"
          },
          {
            "astId": 6081,
            "contract": "contracts/CharacterNFT.sol:CharacterNFT",
            "label": "strength",
            "offset": 23,
            "slot": "3",
            "type": "t_uint8"
          },
          {
            "astId": 6083,
            "contract": "contracts/CharacterNFT.sol:CharacterNFT",
            "label": "speed",
            "offset": 24,
            "slot": "3",
            "type": "t_uint8"
          },
          {
            "astId": 6085,
            "contract": "contracts/CharacterNFT.sol:CharacterNFT",
            "label": "stamina",
            "offset": 25,
            "slot": "3",
            "type": "t_uint8"
          }
        ],
        "numberOfBytes": "128"
      },
      "t_struct(Counter)5219_storage": {
        "encoding": "inplace",
        "label": "struct CountersUpgradeable.Counter",
        "members": [
          {
            "astId": 5218,
            "contract": "contracts/CharacterNFT.sol:CharacterNFT",
            "label": "_value",
            "offset": 0,
            "slot": "0",
            "type": "t_uint256"
          }
        ],
        "numberOfBytes": "32"
      },
      "t_struct(RoleData)2219_storage": {
        "encoding": "inplace",
        "label": "struct AccessControlUpgradeable.RoleData",
        "members": [
          {
            "astId": 2216,
            "contract": "contracts/CharacterNFT.sol:CharacterNFT",
            "label": "members",
            "offset": 0,
            "slot": "0",
            "type": "t_mapping(t_address,t_bool)"
          },
          {
            "astId": 2218,
            "contract": "contracts/CharacterNFT.sol:CharacterNFT",
            "label": "adminRole",
            "offset": 0,
            "slot": "1",
            "type": "t_bytes32"
          }
        ],
        "numberOfBytes": "64"
      },
      "t_uint256": {
        "encoding": "inplace",
        "label": "uint256",
        "numberOfBytes": "32"
      },
      "t_uint8": {
        "encoding": "inplace",
        "label": "uint8",
        "numberOfBytes": "1"
      }
    }
  }
}