{
  "address": "0x72A42F8BBE90551c6e3a76AF005Ea52A9142154C",
  "abi": [
    {
      "inputs": [],
      "stateMutability": "nonpayable",
      "type": "constructor"
    },
    {
      "anonymous": false,
      "inputs": [
        {
          "indexed": true,
          "internalType": "bytes32",
          "name": "id",
          "type": "bytes32"
        }
      ],
      "name": "ChainlinkCancelled",
      "type": "event"
    },
    {
      "anonymous": false,
      "inputs": [
        {
          "indexed": true,
          "internalType": "bytes32",
          "name": "id",
          "type": "bytes32"
        }
      ],
      "name": "ChainlinkFulfilled",
      "type": "event"
    },
    {
      "anonymous": false,
      "inputs": [
        {
          "indexed": true,
          "internalType": "bytes32",
          "name": "id",
          "type": "bytes32"
        }
      ],
      "name": "ChainlinkRequested",
      "type": "event"
    },
    {
      "anonymous": false,
      "inputs": [
        {
          "indexed": true,
          "internalType": "bytes32",
          "name": "role",
          "type": "bytes32"
        },
        {
          "indexed": true,
          "internalType": "bytes32",
          "name": "previousAdminRole",
          "type": "bytes32"
        },
        {
          "indexed": true,
          "internalType": "bytes32",
          "name": "newAdminRole",
          "type": "bytes32"
        }
      ],
      "name": "RoleAdminChanged",
      "type": "event"
    },
    {
      "anonymous": false,
      "inputs": [
        {
          "indexed": true,
          "internalType": "bytes32",
          "name": "role",
          "type": "bytes32"
        },
        {
          "indexed": true,
          "internalType": "address",
          "name": "account",
          "type": "address"
        },
        {
          "indexed": true,
          "internalType": "address",
          "name": "sender",
          "type": "address"
        }
      ],
      "name": "RoleGranted",
      "type": "event"
    },
    {
      "anonymous": false,
      "inputs": [
        {
          "indexed": true,
          "internalType": "bytes32",
          "name": "role",
          "type": "bytes32"
        },
        {
          "indexed": true,
          "internalType": "address",
          "name": "account",
          "type": "address"
        },
        {
          "indexed": true,
          "internalType": "address",
          "name": "sender",
          "type": "address"
        }
      ],
      "name": "RoleRevoked",
      "type": "event"
    },
    {
      "inputs": [],
      "name": "DEFAULT_ADMIN_ROLE",
      "outputs": [
        {
          "internalType": "bytes32",
          "name": "",
          "type": "bytes32"
        }
      ],
      "stateMutability": "view",
      "type": "function"
    },
    {
      "inputs": [],
      "name": "characterNFT",
      "outputs": [
        {
          "internalType": "contract ICharacter",
          "name": "",
          "type": "address"
        }
      ],
      "stateMutability": "view",
      "type": "function"
    },
    {
      "inputs": [],
      "name": "createCharacter",
      "outputs": [],
      "stateMutability": "payable",
      "type": "function"
    },
    {
      "inputs": [
        {
          "internalType": "bytes32",
          "name": "role",
          "type": "bytes32"
        }
      ],
      "name": "getRoleAdmin",
      "outputs": [
        {
          "internalType": "bytes32",
          "name": "",
          "type": "bytes32"
        }
      ],
      "stateMutability": "view",
      "type": "function"
    },
    {
      "inputs": [
        {
          "internalType": "bytes32",
          "name": "role",
          "type": "bytes32"
        },
        {
          "internalType": "address",
          "name": "account",
          "type": "address"
        }
      ],
      "name": "grantRole",
      "outputs": [],
      "stateMutability": "nonpayable",
      "type": "function"
    },
    {
      "inputs": [
        {
          "internalType": "bytes32",
          "name": "role",
          "type": "bytes32"
        },
        {
          "internalType": "address",
          "name": "account",
          "type": "address"
        }
      ],
      "name": "hasRole",
      "outputs": [
        {
          "internalType": "bool",
          "name": "",
          "type": "bool"
        }
      ],
      "stateMutability": "view",
      "type": "function"
    },
    {
      "inputs": [
        {
          "internalType": "address",
          "name": "_vrf",
          "type": "address"
        },
        {
          "internalType": "address",
          "name": "_oracle",
          "type": "address"
        },
        {
          "internalType": "bytes32",
          "name": "_keyHash",
          "type": "bytes32"
        },
        {
          "internalType": "bytes32",
          "name": "_jobId",
          "type": "bytes32"
        },
        {
          "internalType": "uint256",
          "name": "_vrfFee",
          "type": "uint256"
        },
        {
          "internalType": "uint256",
          "name": "_oracleFee",
          "type": "uint256"
        },
        {
          "internalType": "contract ICharacter",
          "name": "_characterNFT",
          "type": "address"
        }
      ],
      "name": "initialize",
      "outputs": [],
      "stateMutability": "nonpayable",
      "type": "function"
    },
    {
      "inputs": [],
      "name": "jobId",
      "outputs": [
        {
          "internalType": "bytes32",
          "name": "",
          "type": "bytes32"
        }
      ],
      "stateMutability": "view",
      "type": "function"
    },
    {
      "inputs": [],
      "name": "keyHash",
      "outputs": [
        {
          "internalType": "bytes32",
          "name": "",
          "type": "bytes32"
        }
      ],
      "stateMutability": "view",
      "type": "function"
    },
    {
      "inputs": [],
      "name": "mintPrice",
      "outputs": [
        {
          "internalType": "uint256",
          "name": "",
          "type": "uint256"
        }
      ],
      "stateMutability": "view",
      "type": "function"
    },
    {
      "inputs": [],
      "name": "oracle",
      "outputs": [
        {
          "internalType": "address",
          "name": "",
          "type": "address"
        }
      ],
      "stateMutability": "view",
      "type": "function"
    },
    {
      "inputs": [],
      "name": "oracleFee",
      "outputs": [
        {
          "internalType": "uint256",
          "name": "",
          "type": "uint256"
        }
      ],
      "stateMutability": "view",
      "type": "function"
    },
    {
      "inputs": [
        {
          "internalType": "bytes32",
          "name": "requestId",
          "type": "bytes32"
        },
        {
          "internalType": "uint256",
          "name": "randomness",
          "type": "uint256"
        }
      ],
      "name": "rawFulfillRandomness",
      "outputs": [],
      "stateMutability": "nonpayable",
      "type": "function"
    },
    {
      "inputs": [
        {
          "internalType": "bytes32",
          "name": "role",
          "type": "bytes32"
        },
        {
          "internalType": "address",
          "name": "account",
          "type": "address"
        }
      ],
      "name": "renounceRole",
      "outputs": [],
      "stateMutability": "nonpayable",
      "type": "function"
    },
    {
      "inputs": [
        {
          "internalType": "bytes32",
          "name": "role",
          "type": "bytes32"
        },
        {
          "internalType": "address",
          "name": "account",
          "type": "address"
        }
      ],
      "name": "revokeRole",
      "outputs": [],
      "stateMutability": "nonpayable",
      "type": "function"
    },
    {
      "inputs": [
        {
          "internalType": "bytes4",
          "name": "interfaceId",
          "type": "bytes4"
        }
      ],
      "name": "supportsInterface",
      "outputs": [
        {
          "internalType": "bool",
          "name": "",
          "type": "bool"
        }
      ],
      "stateMutability": "view",
      "type": "function"
    },
    {
      "inputs": [],
      "name": "vrf",
      "outputs": [
        {
          "internalType": "address",
          "name": "",
          "type": "address"
        }
      ],
      "stateMutability": "view",
      "type": "function"
    },
    {
      "inputs": [],
      "name": "vrfFee",
      "outputs": [
        {
          "internalType": "uint256",
          "name": "",
          "type": "uint256"
        }
      ],
      "stateMutability": "view",
      "type": "function"
    },
    {
      "inputs": [],
      "name": "withdrawEther",
      "outputs": [],
      "stateMutability": "nonpayable",
      "type": "function"
    },
    {
      "inputs": [],
      "name": "withdrawLink",
      "outputs": [],
      "stateMutability": "nonpayable",
      "type": "function"
    }
  ],
  "transactionHash": "0x619bc8d28cbc066a205a6147cf0c34a36bcb71a1a166bd9d77cc49bdf1960ef7",
  "args": [],
  "solcInputHash": "f6418b09355656077fb9f346b8a0173a",
  "bytecode": "0x6080604052600160cd553480156200001657600080fd5b50600054610100900460ff16620000345760005460ff16156200003e565b6200003e620000e3565b620000a65760405162461bcd60e51b815260206004820152602e60248201527f496e697469616c697a61626c653a20636f6e747261637420697320616c72656160448201526d191e481a5b9a5d1a585b1a5e995960921b606482015260840160405180910390fd5b600054610100900460ff16158015620000c9576000805461ffff19166101011790555b8015620000dc576000805461ff00191690555b5062000107565b6000620000fb306200010160201b620009db1760201c565b15905090565b3b151590565b6113f480620001176000396000f3fe60806040526004361061011f5760003560e01c80636817c76c116100a057806394985ddd1161006457806394985ddd14610305578063a217fddf14610325578063c2939d971461033a578063d547741f14610350578063f9cd3ceb1461037057600080fd5b80636817c76c146102855780637362377b1461029b5780637dc0d1d0146102b05780638dc654a2146102d057806391d14854146102e557600080fd5b806336568abe116100e757806336568abe14610207578063384d10ee146102275780633a5ca23b146102475780635537f0591461026757806361728f391461026f57600080fd5b806301ffc9a7146101245780630c949043146101595780631017507d14610191578063248a9ca3146101b55780632f2ff15d146101e5575b600080fd5b34801561013057600080fd5b5061014461013f36600461103d565b610386565b60405190151581526020015b60405180910390f35b34801561016557600080fd5b5060cf54610179906001600160a01b031681565b6040516001600160a01b039091168152602001610150565b34801561019d57600080fd5b506101a760d35481565b604051908152602001610150565b3480156101c157600080fd5b506101a76101d0366004611067565b60009081526097602052604090206001015490565b3480156101f157600080fd5b50610205610200366004611098565b6103bd565b005b34801561021357600080fd5b50610205610222366004611098565b6103e8565b34801561023357600080fd5b5060d654610179906001600160a01b031681565b34801561025357600080fd5b506102056102623660046110c8565b61046b565b6102056105aa565b34801561027b57600080fd5b506101a760d15481565b34801561029157600080fd5b506101a760d55481565b3480156102a757600080fd5b50610205610726565b3480156102bc57600080fd5b5060d054610179906001600160a01b031681565b3480156102dc57600080fd5b5061020561075e565b3480156102f157600080fd5b50610144610300366004611098565b6108a5565b34801561031157600080fd5b5061020561032036600461113a565b6108d0565b34801561033157600080fd5b506101a7600081565b34801561034657600080fd5b506101a760d25481565b34801561035c57600080fd5b5061020561036b366004611098565b6109b5565b34801561037c57600080fd5b506101a760d45481565b60006001600160e01b03198216637965db0b60e01b14806103b757506301ffc9a760e01b6001600160e01b03198316145b92915050565b6000828152609760205260409020600101546103d981336109e1565b6103e38383610a45565b505050565b6001600160a01b038116331461045d5760405162461bcd60e51b815260206004820152602f60248201527f416363657373436f6e74726f6c3a2063616e206f6e6c792072656e6f756e636560448201526e103937b632b9903337b91039b2b63360891b60648201526084015b60405180910390fd5b6104678282610acb565b5050565b600054610100900460ff166104865760005460ff161561048a565b303b155b6104ed5760405162461bcd60e51b815260206004820152602e60248201527f496e697469616c697a61626c653a20636f6e747261637420697320616c72656160448201526d191e481a5b9a5d1a585b1a5e995960921b6064820152608401610454565b600054610100900460ff1615801561050f576000805461ffff19166101011790555b610517610b32565b60cf80546001600160a01b03808b166001600160a01b03199283161790925560d188905560d386905560d080548a841690831617905560d287905560d485905560d680549285169290911691909117905566038d7ea4c6800060d55561057b610bcf565b610583610c0e565b61058e600033610a45565b80156105a0576000805461ff00191690555b5050505050505050565b600260015414156105fd5760405162461bcd60e51b815260206004820152601f60248201527f5265656e7472616e637947756172643a207265656e7472616e742063616c6c006044820152606401610454565b600260015560d5543410156106545760405162461bcd60e51b815260206004820152601760248201527f496e73756666696369656e742065746865722073656e740000000000000000006044820152606401610454565b32331461068e5760405162461bcd60e51b8152602060048201526008602482015267454f41206f6e6c7960c01b6044820152606401610454565b6000610698610c3d565b60d6546040516340d097c360e01b81523360048201529192506000916001600160a01b03909116906340d097c3906024016020604051808303816000875af11580156106e8573d6000803e3d6000fd5b505050506040513d601f19601f8201168201806040525081019061070c919061115c565b600092835260d86020526040909220919091555060018055565b600061073281336109e1565b60405133904780156108fc02916000818181858888f19350505050158015610467573d6000803e3d6000fd5b600061076a81336109e1565b600061077e60cb546001600160a01b031690565b6040516370a0823160e01b81523060048201529091506001600160a01b0382169063a9059cbb90339083906370a0823190602401602060405180830381865afa1580156107cf573d6000803e3d6000fd5b505050506040513d601f19601f820116820180604052508101906107f3919061115c565b6040516001600160e01b031960e085901b1681526001600160a01b03909216600483015260248201526044016020604051808303816000875af115801561083e573d6000803e3d6000fd5b505050506040513d601f19601f820116820180604052508101906108629190611175565b6104675760405162461bcd60e51b8152602060048201526014602482015273131a5b9ac81d1c985b9cd9995c8819985a5b195960621b6044820152606401610454565b60009182526097602090815260408084206001600160a01b0393909316845291905290205460ff1690565b60cf546001600160a01b0316331461093b5760405162461bcd60e51b815260206004820152602860248201527f4f6e6c79207672662063616e2066756c66696c6c2072616e646f6d6e65737320604482015267726571756573747360c01b6064820152608401610454565b600082815260d86020526040908190205460d65491516317ba999360e01b8152600481018290526024810184905290916001600160a01b0316906317ba999390604401600060405180830381600087803b15801561099857600080fd5b505af11580156109ac573d6000803e3d6000fd5b50505050505050565b6000828152609760205260409020600101546109d181336109e1565b6103e38383610acb565b3b151590565b6109eb82826108a5565b61046757610a03816001600160a01b03166014610e46565b610a0e836020610e46565b604051602001610a1f9291906111c7565b60408051601f198184030181529082905262461bcd60e51b825261045491600401611268565b610a4f82826108a5565b6104675760008281526097602090815260408083206001600160a01b03851684529091529020805460ff19166001179055610a873390565b6001600160a01b0316816001600160a01b0316837f2f8788117e7eff1d82e926ec794901d17c78024a50270940304540a733656f0d60405160405180910390a45050565b610ad582826108a5565b156104675760008281526097602090815260408083206001600160a01b0385168085529252808320805460ff1916905551339285917ff6391f5c32d9c69d2a47ea670b442974b53935d1edc7fd64eb21e047a839171b9190a45050565b610bcd73c89bd4e1632d3a43cb03aaad5262cbe4038bc5716001600160a01b03166338cc48316040518163ffffffff1660e01b8152600401602060405180830381865afa158015610b87573d6000803e3d6000fd5b505050506040513d601f19601f82011682018060405250810190610bab919061127b565b60cb80546001600160a01b0319166001600160a01b0392909216919091179055565b565b600054610100900460ff16610bf65760405162461bcd60e51b815260040161045490611298565b610bfe610fe9565b610c06610fe9565b610bcd610fe9565b600054610100900460ff16610c355760405162461bcd60e51b815260040161045490611298565b610bcd611010565b600080610c5260cb546001600160a01b031690565b60d3546040516370a0823160e01b8152306004820152919250906001600160a01b038316906370a0823190602401602060405180830381865afa158015610c9d573d6000803e3d6000fd5b505050506040513d601f19601f82011682018060405250810190610cc1919061115c565b1015610d0f5760405162461bcd60e51b815260206004820152601760248201527f4e6f7420656e6f756768204c696e6b20746f2063616c6c0000000000000000006044820152606401610454565b60cf5460d35460d1546040805160208101929092526000828201528051808303820181526060830191829052630200057560e51b9091526001600160a01b0385811694634000aea094610d6b94929091169290916064016112e3565b6020604051808303816000875af1158015610d8a573d6000803e3d6000fd5b505050506040513d601f19601f82011682018060405250810190610dae9190611175565b5060d154600081815260d7602081815260408084208054825180850188905280840187905230606082015260808082018390528451808303909101815260a09091019093528251928401929092209585529290915291610e0d83611329565b909155505060d1546040805160208101929092528101829052606001604051602081830303815290604052805190602001209250505090565b60606000610e55836002611344565b610e60906002611363565b67ffffffffffffffff811115610e7857610e7861137b565b6040519080825280601f01601f191660200182016040528015610ea2576020820181803683370190505b509050600360fc1b81600081518110610ebd57610ebd611391565b60200101906001600160f81b031916908160001a905350600f60fb1b81600181518110610eec57610eec611391565b60200101906001600160f81b031916908160001a9053506000610f10846002611344565b610f1b906001611363565b90505b6001811115610f93576f181899199a1a9b1b9c1cb0b131b232b360811b85600f1660108110610f4f57610f4f611391565b1a60f81b828281518110610f6557610f65611391565b60200101906001600160f81b031916908160001a90535060049490941c93610f8c816113a7565b9050610f1e565b508315610fe25760405162461bcd60e51b815260206004820181905260248201527f537472696e67733a20686578206c656e67746820696e73756666696369656e746044820152606401610454565b9392505050565b600054610100900460ff16610bcd5760405162461bcd60e51b815260040161045490611298565b600054610100900460ff166110375760405162461bcd60e51b815260040161045490611298565b60018055565b60006020828403121561104f57600080fd5b81356001600160e01b031981168114610fe257600080fd5b60006020828403121561107957600080fd5b5035919050565b6001600160a01b038116811461109557600080fd5b50565b600080604083850312156110ab57600080fd5b8235915060208301356110bd81611080565b809150509250929050565b600080600080600080600060e0888a0312156110e357600080fd5b87356110ee81611080565b965060208801356110fe81611080565b955060408801359450606088013593506080880135925060a0880135915060c088013561112a81611080565b8091505092959891949750929550565b6000806040838503121561114d57600080fd5b50508035926020909101359150565b60006020828403121561116e57600080fd5b5051919050565b60006020828403121561118757600080fd5b81518015158114610fe257600080fd5b60005b838110156111b257818101518382015260200161119a565b838111156111c1576000848401525b50505050565b7f416363657373436f6e74726f6c3a206163636f756e74200000000000000000008152600083516111ff816017850160208801611197565b7001034b99036b4b9b9b4b733903937b6329607d1b6017918401918201528351611230816028840160208801611197565b01602801949350505050565b60008151808452611254816020860160208601611197565b601f01601f19169290920160200192915050565b602081526000610fe2602083018461123c565b60006020828403121561128d57600080fd5b8151610fe281611080565b6020808252602b908201527f496e697469616c697a61626c653a20636f6e7472616374206973206e6f74206960408201526a6e697469616c697a696e6760a81b606082015260800190565b60018060a01b038416815282602082015260606040820152600061130a606083018461123c565b95945050505050565b634e487b7160e01b600052601160045260246000fd5b600060001982141561133d5761133d611313565b5060010190565b600081600019048311821515161561135e5761135e611313565b500290565b6000821982111561137657611376611313565b500190565b634e487b7160e01b600052604160045260246000fd5b634e487b7160e01b600052603260045260246000fd5b6000816113b6576113b6611313565b50600019019056fea2646970667358221220e5c38097ea5f0c9c46ec15c78b1cdbb75cd4e33981aacfa92d52d3d8e34ff95a64736f6c634300080b0033",
  "devdoc": {
    "kind": "dev",
    "methods": {
      "getRoleAdmin(bytes32)": {
        "details": "Returns the admin role that controls `role`. See {grantRole} and {revokeRole}. To change a role's admin, use {_setRoleAdmin}."
      },
      "grantRole(bytes32,address)": {
        "details": "Grants `role` to `account`. If `account` had not been already granted `role`, emits a {RoleGranted} event. Requirements: - the caller must have ``role``'s admin role."
      },
      "hasRole(bytes32,address)": {
        "details": "Returns `true` if `account` has been granted `role`."
      },
      "renounceRole(bytes32,address)": {
        "details": "Revokes `role` from the calling account. Roles are often managed via {grantRole} and {revokeRole}: this function's purpose is to provide a mechanism for accounts to lose their privileges if they are compromised (such as when a trusted device is misplaced). If the calling account had been revoked `role`, emits a {RoleRevoked} event. Requirements: - the caller must be `account`."
      },
      "revokeRole(bytes32,address)": {
        "details": "Revokes `role` from `account`. If `account` had been granted `role`, emits a {RoleRevoked} event. Requirements: - the caller must have ``role``'s admin role."
      },
      "supportsInterface(bytes4)": {
        "details": "See {IERC165-supportsInterface}."
      }
    },
    "version": 1
  },
  "userdoc": {
    "kind": "user",
    "methods": {},
    "version": 1
  },
  "storageLayout": {
    "storage": [
      {
        "astId": 3000,
        "contract": "contracts/Controller.sol:Controller",
        "label": "_initialized",
        "offset": 0,
        "slot": "0",
        "type": "t_bool"
      },
      {
        "astId": 3003,
        "contract": "contracts/Controller.sol:Controller",
        "label": "_initializing",
        "offset": 1,
        "slot": "0",
        "type": "t_bool"
      },
      {
        "astId": 3305,
        "contract": "contracts/Controller.sol:Controller",
        "label": "_status",
        "offset": 0,
        "slot": "1",
        "type": "t_uint256"
      },
      {
        "astId": 3348,
        "contract": "contracts/Controller.sol:Controller",
        "label": "__gap",
        "offset": 0,
        "slot": "2",
        "type": "t_array(t_uint256)49_storage"
      },
      {
        "astId": 5212,
        "contract": "contracts/Controller.sol:Controller",
        "label": "__gap",
        "offset": 0,
        "slot": "51",
        "type": "t_array(t_uint256)50_storage"
      },
      {
        "astId": 5595,
        "contract": "contracts/Controller.sol:Controller",
        "label": "__gap",
        "offset": 0,
        "slot": "101",
        "type": "t_array(t_uint256)50_storage"
      },
      {
        "astId": 2224,
        "contract": "contracts/Controller.sol:Controller",
        "label": "_roles",
        "offset": 0,
        "slot": "151",
        "type": "t_mapping(t_bytes32,t_struct(RoleData)2219_storage)"
      },
      {
        "astId": 2511,
        "contract": "contracts/Controller.sol:Controller",
        "label": "__gap",
        "offset": 0,
        "slot": "152",
        "type": "t_array(t_uint256)49_storage"
      },
      {
        "astId": 319,
        "contract": "contracts/Controller.sol:Controller",
        "label": "s_ens",
        "offset": 0,
        "slot": "201",
        "type": "t_contract(ENSInterface)974"
      },
      {
        "astId": 321,
        "contract": "contracts/Controller.sol:Controller",
        "label": "s_ensNode",
        "offset": 0,
        "slot": "202",
        "type": "t_bytes32"
      },
      {
        "astId": 324,
        "contract": "contracts/Controller.sol:Controller",
        "label": "s_link",
        "offset": 0,
        "slot": "203",
        "type": "t_contract(LinkTokenInterface)1069"
      },
      {
        "astId": 327,
        "contract": "contracts/Controller.sol:Controller",
        "label": "s_oracle",
        "offset": 0,
        "slot": "204",
        "type": "t_contract(OperatorInterface)1149"
      },
      {
        "astId": 330,
        "contract": "contracts/Controller.sol:Controller",
        "label": "s_requestCount",
        "offset": 0,
        "slot": "205",
        "type": "t_uint256"
      },
      {
        "astId": 334,
        "contract": "contracts/Controller.sol:Controller",
        "label": "s_pendingRequests",
        "offset": 0,
        "slot": "206",
        "type": "t_mapping(t_bytes32,t_address)"
      },
      {
        "astId": 6631,
        "contract": "contracts/Controller.sol:Controller",
        "label": "vrf",
        "offset": 0,
        "slot": "207",
        "type": "t_address"
      },
      {
        "astId": 6633,
        "contract": "contracts/Controller.sol:Controller",
        "label": "oracle",
        "offset": 0,
        "slot": "208",
        "type": "t_address"
      },
      {
        "astId": 6635,
        "contract": "contracts/Controller.sol:Controller",
        "label": "keyHash",
        "offset": 0,
        "slot": "209",
        "type": "t_bytes32"
      },
      {
        "astId": 6637,
        "contract": "contracts/Controller.sol:Controller",
        "label": "jobId",
        "offset": 0,
        "slot": "210",
        "type": "t_bytes32"
      },
      {
        "astId": 6639,
        "contract": "contracts/Controller.sol:Controller",
        "label": "vrfFee",
        "offset": 0,
        "slot": "211",
        "type": "t_uint256"
      },
      {
        "astId": 6641,
        "contract": "contracts/Controller.sol:Controller",
        "label": "oracleFee",
        "offset": 0,
        "slot": "212",
        "type": "t_uint256"
      },
      {
        "astId": 6643,
        "contract": "contracts/Controller.sol:Controller",
        "label": "mintPrice",
        "offset": 0,
        "slot": "213",
        "type": "t_uint256"
      },
      {
        "astId": 6646,
        "contract": "contracts/Controller.sol:Controller",
        "label": "characterNFT",
        "offset": 0,
        "slot": "214",
        "type": "t_contract(ICharacter)6982"
      },
      {
        "astId": 6650,
        "contract": "contracts/Controller.sol:Controller",
        "label": "nonces",
        "offset": 0,
        "slot": "215",
        "type": "t_mapping(t_bytes32,t_uint256)"
      },
      {
        "astId": 6654,
        "contract": "contracts/Controller.sol:Controller",
        "label": "requestIdToTokenId",
        "offset": 0,
        "slot": "216",
        "type": "t_mapping(t_bytes32,t_uint256)"
      }
    ],
    "types": {
      "t_address": {
        "encoding": "inplace",
        "label": "address",
        "numberOfBytes": "20"
      },
      "t_array(t_uint256)49_storage": {
        "base": "t_uint256",
        "encoding": "inplace",
        "label": "uint256[49]",
        "numberOfBytes": "1568"
      },
      "t_array(t_uint256)50_storage": {
        "base": "t_uint256",
        "encoding": "inplace",
        "label": "uint256[50]",
        "numberOfBytes": "1600"
      },
      "t_bool": {
        "encoding": "inplace",
        "label": "bool",
        "numberOfBytes": "1"
      },
      "t_bytes32": {
        "encoding": "inplace",
        "label": "bytes32",
        "numberOfBytes": "32"
      },
      "t_contract(ENSInterface)974": {
        "encoding": "inplace",
        "label": "contract ENSInterface",
        "numberOfBytes": "20"
      },
      "t_contract(ICharacter)6982": {
        "encoding": "inplace",
        "label": "contract ICharacter",
        "numberOfBytes": "20"
      },
      "t_contract(LinkTokenInterface)1069": {
        "encoding": "inplace",
        "label": "contract LinkTokenInterface",
        "numberOfBytes": "20"
      },
      "t_contract(OperatorInterface)1149": {
        "encoding": "inplace",
        "label": "contract OperatorInterface",
        "numberOfBytes": "20"
      },
      "t_mapping(t_address,t_bool)": {
        "encoding": "mapping",
        "key": "t_address",
        "label": "mapping(address => bool)",
        "numberOfBytes": "32",
        "value": "t_bool"
      },
      "t_mapping(t_bytes32,t_address)": {
        "encoding": "mapping",
        "key": "t_bytes32",
        "label": "mapping(bytes32 => address)",
        "numberOfBytes": "32",
        "value": "t_address"
      },
      "t_mapping(t_bytes32,t_struct(RoleData)2219_storage)": {
        "encoding": "mapping",
        "key": "t_bytes32",
        "label": "mapping(bytes32 => struct AccessControlUpgradeable.RoleData)",
        "numberOfBytes": "32",
        "value": "t_struct(RoleData)2219_storage"
      },
      "t_mapping(t_bytes32,t_uint256)": {
        "encoding": "mapping",
        "key": "t_bytes32",
        "label": "mapping(bytes32 => uint256)",
        "numberOfBytes": "32",
        "value": "t_uint256"
      },
      "t_struct(RoleData)2219_storage": {
        "encoding": "inplace",
        "label": "struct AccessControlUpgradeable.RoleData",
        "members": [
          {
            "astId": 2216,
            "contract": "contracts/Controller.sol:Controller",
            "label": "members",
            "offset": 0,
            "slot": "0",
            "type": "t_mapping(t_address,t_bool)"
          },
          {
            "astId": 2218,
            "contract": "contracts/Controller.sol:Controller",
            "label": "adminRole",
            "offset": 0,
            "slot": "1",
            "type": "t_bytes32"
          }
        ],
        "numberOfBytes": "64"
      },
      "t_uint256": {
        "encoding": "inplace",
        "label": "uint256",
        "numberOfBytes": "32"
      }
    }
  }
}