{
  "address": "0x00c58717b348d019375DE3bFA15c97472Bb88bcC",
  "abi": [
    {
      "inputs": [],
      "stateMutability": "nonpayable",
      "type": "constructor"
    },
    {
      "anonymous": false,
      "inputs": [
        {
          "indexed": true,
          "internalType": "bytes32",
          "name": "id",
          "type": "bytes32"
        }
      ],
      "name": "ChainlinkCancelled",
      "type": "event"
    },
    {
      "anonymous": false,
      "inputs": [
        {
          "indexed": true,
          "internalType": "bytes32",
          "name": "id",
          "type": "bytes32"
        }
      ],
      "name": "ChainlinkFulfilled",
      "type": "event"
    },
    {
      "anonymous": false,
      "inputs": [
        {
          "indexed": true,
          "internalType": "bytes32",
          "name": "id",
          "type": "bytes32"
        }
      ],
      "name": "ChainlinkRequested",
      "type": "event"
    },
    {
      "anonymous": false,
      "inputs": [
        {
          "indexed": true,
          "internalType": "bytes32",
          "name": "role",
          "type": "bytes32"
        },
        {
          "indexed": true,
          "internalType": "bytes32",
          "name": "previousAdminRole",
          "type": "bytes32"
        },
        {
          "indexed": true,
          "internalType": "bytes32",
          "name": "newAdminRole",
          "type": "bytes32"
        }
      ],
      "name": "RoleAdminChanged",
      "type": "event"
    },
    {
      "anonymous": false,
      "inputs": [
        {
          "indexed": true,
          "internalType": "bytes32",
          "name": "role",
          "type": "bytes32"
        },
        {
          "indexed": true,
          "internalType": "address",
          "name": "account",
          "type": "address"
        },
        {
          "indexed": true,
          "internalType": "address",
          "name": "sender",
          "type": "address"
        }
      ],
      "name": "RoleGranted",
      "type": "event"
    },
    {
      "anonymous": false,
      "inputs": [
        {
          "indexed": true,
          "internalType": "bytes32",
          "name": "role",
          "type": "bytes32"
        },
        {
          "indexed": true,
          "internalType": "address",
          "name": "account",
          "type": "address"
        },
        {
          "indexed": true,
          "internalType": "address",
          "name": "sender",
          "type": "address"
        }
      ],
      "name": "RoleRevoked",
      "type": "event"
    },
    {
      "inputs": [],
      "name": "DEFAULT_ADMIN_ROLE",
      "outputs": [
        {
          "internalType": "bytes32",
          "name": "",
          "type": "bytes32"
        }
      ],
      "stateMutability": "view",
      "type": "function"
    },
    {
      "inputs": [],
      "name": "characterNFT",
      "outputs": [
        {
          "internalType": "contract ICharacter",
          "name": "",
          "type": "address"
        }
      ],
      "stateMutability": "view",
      "type": "function"
    },
    {
      "inputs": [],
      "name": "createCharacter",
      "outputs": [],
      "stateMutability": "payable",
      "type": "function"
    },
    {
      "inputs": [
        {
          "internalType": "bytes32",
          "name": "requestId",
          "type": "bytes32"
        },
        {
          "internalType": "bool",
          "name": "value",
          "type": "bool"
        }
      ],
      "name": "fulfill",
      "outputs": [],
      "stateMutability": "nonpayable",
      "type": "function"
    },
    {
      "inputs": [
        {
          "internalType": "bytes32",
          "name": "role",
          "type": "bytes32"
        }
      ],
      "name": "getRoleAdmin",
      "outputs": [
        {
          "internalType": "bytes32",
          "name": "",
          "type": "bytes32"
        }
      ],
      "stateMutability": "view",
      "type": "function"
    },
    {
      "inputs": [
        {
          "internalType": "bytes32",
          "name": "role",
          "type": "bytes32"
        },
        {
          "internalType": "address",
          "name": "account",
          "type": "address"
        }
      ],
      "name": "grantRole",
      "outputs": [],
      "stateMutability": "nonpayable",
      "type": "function"
    },
    {
      "inputs": [
        {
          "internalType": "bytes32",
          "name": "role",
          "type": "bytes32"
        },
        {
          "internalType": "address",
          "name": "account",
          "type": "address"
        }
      ],
      "name": "hasRole",
      "outputs": [
        {
          "internalType": "bool",
          "name": "",
          "type": "bool"
        }
      ],
      "stateMutability": "view",
      "type": "function"
    },
    {
      "inputs": [
        {
          "internalType": "address",
          "name": "_vrf",
          "type": "address"
        },
        {
          "internalType": "address",
          "name": "_oracle",
          "type": "address"
        },
        {
          "internalType": "bytes32",
          "name": "_keyHash",
          "type": "bytes32"
        },
        {
          "internalType": "bytes32",
          "name": "_jobId",
          "type": "bytes32"
        },
        {
          "internalType": "uint256",
          "name": "_vrfFee",
          "type": "uint256"
        },
        {
          "internalType": "uint256",
          "name": "_oracleFee",
          "type": "uint256"
        },
        {
          "internalType": "contract ICharacter",
          "name": "_characterNFT",
          "type": "address"
        }
      ],
      "name": "initialize",
      "outputs": [],
      "stateMutability": "nonpayable",
      "type": "function"
    },
    {
      "inputs": [],
      "name": "jobId",
      "outputs": [
        {
          "internalType": "bytes32",
          "name": "",
          "type": "bytes32"
        }
      ],
      "stateMutability": "view",
      "type": "function"
    },
    {
      "inputs": [],
      "name": "keyHash",
      "outputs": [
        {
          "internalType": "bytes32",
          "name": "",
          "type": "bytes32"
        }
      ],
      "stateMutability": "view",
      "type": "function"
    },
    {
      "inputs": [],
      "name": "mintPrice",
      "outputs": [
        {
          "internalType": "uint256",
          "name": "",
          "type": "uint256"
        }
      ],
      "stateMutability": "view",
      "type": "function"
    },
    {
      "inputs": [],
      "name": "oracle",
      "outputs": [
        {
          "internalType": "address",
          "name": "",
          "type": "address"
        }
      ],
      "stateMutability": "view",
      "type": "function"
    },
    {
      "inputs": [],
      "name": "oracleFee",
      "outputs": [
        {
          "internalType": "uint256",
          "name": "",
          "type": "uint256"
        }
      ],
      "stateMutability": "view",
      "type": "function"
    },
    {
      "inputs": [
        {
          "internalType": "bytes32",
          "name": "requestId",
          "type": "bytes32"
        },
        {
          "internalType": "uint256",
          "name": "randomness",
          "type": "uint256"
        }
      ],
      "name": "rawFulfillRandomness",
      "outputs": [],
      "stateMutability": "nonpayable",
      "type": "function"
    },
    {
      "inputs": [
        {
          "internalType": "bytes32",
          "name": "role",
          "type": "bytes32"
        },
        {
          "internalType": "address",
          "name": "account",
          "type": "address"
        }
      ],
      "name": "renounceRole",
      "outputs": [],
      "stateMutability": "nonpayable",
      "type": "function"
    },
    {
      "inputs": [
        {
          "internalType": "bytes32",
          "name": "role",
          "type": "bytes32"
        },
        {
          "internalType": "address",
          "name": "account",
          "type": "address"
        }
      ],
      "name": "revokeRole",
      "outputs": [],
      "stateMutability": "nonpayable",
      "type": "function"
    },
    {
      "inputs": [
        {
          "internalType": "bytes4",
          "name": "interfaceId",
          "type": "bytes4"
        }
      ],
      "name": "supportsInterface",
      "outputs": [
        {
          "internalType": "bool",
          "name": "",
          "type": "bool"
        }
      ],
      "stateMutability": "view",
      "type": "function"
    },
    {
      "inputs": [
        {
          "internalType": "bytes32",
          "name": "_jobId",
          "type": "bytes32"
        }
      ],
      "name": "updateJobId",
      "outputs": [],
      "stateMutability": "nonpayable",
      "type": "function"
    },
    {
      "inputs": [
        {
          "internalType": "string",
          "name": "",
          "type": "string"
        }
      ],
      "name": "validName",
      "outputs": [
        {
          "internalType": "bool",
          "name": "",
          "type": "bool"
        }
      ],
      "stateMutability": "view",
      "type": "function"
    },
    {
      "inputs": [
        {
          "internalType": "string",
          "name": "_name",
          "type": "string"
        }
      ],
      "name": "validateName",
      "outputs": [
        {
          "internalType": "bytes32",
          "name": "requestId",
          "type": "bytes32"
        }
      ],
      "stateMutability": "nonpayable",
      "type": "function"
    },
    {
      "inputs": [],
      "name": "vrf",
      "outputs": [
        {
          "internalType": "address",
          "name": "",
          "type": "address"
        }
      ],
      "stateMutability": "view",
      "type": "function"
    },
    {
      "inputs": [],
      "name": "vrfFee",
      "outputs": [
        {
          "internalType": "uint256",
          "name": "",
          "type": "uint256"
        }
      ],
      "stateMutability": "view",
      "type": "function"
    },
    {
      "inputs": [],
      "name": "withdrawEther",
      "outputs": [],
      "stateMutability": "nonpayable",
      "type": "function"
    },
    {
      "inputs": [],
      "name": "withdrawLink",
      "outputs": [],
      "stateMutability": "nonpayable",
      "type": "function"
    }
  ],
  "transactionHash": "0xa1bdde6d8ab0f02477994e72b7bd98eee5011fc70543c7af659e0f1e6876bc75",
  "args": [],
  "solcInputHash": "851d5b884560325e0110c8be1437e40a",
  "bytecode": "0x6080604052600160cd553480156200001657600080fd5b50600054610100900460ff16620000345760005460ff16156200003e565b6200003e620000e3565b620000a65760405162461bcd60e51b815260206004820152602e60248201527f496e697469616c697a61626c653a20636f6e747261637420697320616c72656160448201526d191e481a5b9a5d1a585b1a5e995960921b606482015260840160405180910390fd5b600054610100900460ff16158015620000c9576000805461ffff19166101011790555b8015620000dc576000805461ff00191690555b5062000107565b6000620000fb306200010160201b62000cc71760201c565b15905090565b3b151590565b6120da80620001176000396000f3fe60806040526004361061014b5760003560e01c80637362377b116100b65780639ffdb65a1161006f5780639ffdb65a146103ac578063a217fddf146103cc578063c2939d97146103e1578063d547741f146103f7578063f9cd3ceb14610417578063fd68990a1461042d57600080fd5b80637362377b146102e75780637a921a1a146102fc5780637dc0d1d0146103375780638dc654a21461035757806391d148541461036c57806394985ddd1461038c57600080fd5b8063384d10ee11610108578063384d10ee146102535780633a5ca23b146102735780635537f0591461029357806361728f391461029b5780636817c76c146102b157806370015371146102c757600080fd5b806301ffc9a7146101505780630c949043146101855780631017507d146101bd578063248a9ca3146101e15780632f2ff15d1461021157806336568abe14610233575b600080fd5b34801561015c57600080fd5b5061017061016b366004611a6f565b61044d565b60405190151581526020015b60405180910390f35b34801561019157600080fd5b5060cf546101a5906001600160a01b031681565b6040516001600160a01b03909116815260200161017c565b3480156101c957600080fd5b506101d360d35481565b60405190815260200161017c565b3480156101ed57600080fd5b506101d36101fc366004611a99565b60009081526097602052604090206001015490565b34801561021d57600080fd5b5061023161022c366004611aca565b610484565b005b34801561023f57600080fd5b5061023161024e366004611aca565b6104af565b34801561025f57600080fd5b5060d6546101a5906001600160a01b031681565b34801561027f57600080fd5b5061023161028e366004611afa565b610532565b610231610671565b3480156102a757600080fd5b506101d360d15481565b3480156102bd57600080fd5b506101d360d55481565b3480156102d357600080fd5b506102316102e2366004611a99565b6107ed565b3480156102f357600080fd5b506102316107ff565b34801561030857600080fd5b50610170610317366004611b82565b805160208183018101805160da8252928201919093012091525460ff1681565b34801561034357600080fd5b5060d0546101a5906001600160a01b031681565b34801561036357600080fd5b50610231610837565b34801561037857600080fd5b50610170610387366004611aca565b61097e565b34801561039857600080fd5b506102316103a7366004611c33565b6109a9565b3480156103b857600080fd5b506101d36103c7366004611b82565b610a8e565b3480156103d857600080fd5b506101d3600081565b3480156103ed57600080fd5b506101d360d25481565b34801561040357600080fd5b50610231610412366004611aca565b610b15565b34801561042357600080fd5b506101d360d45481565b34801561043957600080fd5b50610231610448366004611c63565b610b3b565b60006001600160e01b03198216637965db0b60e01b148061047e57506301ffc9a760e01b6001600160e01b03198316145b92915050565b6000828152609760205260409020600101546104a08133610ccd565b6104aa8383610d31565b505050565b6001600160a01b03811633146105245760405162461bcd60e51b815260206004820152602f60248201527f416363657373436f6e74726f6c3a2063616e206f6e6c792072656e6f756e636560448201526e103937b632b9903337b91039b2b63360891b60648201526084015b60405180910390fd5b61052e8282610db7565b5050565b600054610100900460ff1661054d5760005460ff1615610551565b303b155b6105b45760405162461bcd60e51b815260206004820152602e60248201527f496e697469616c697a61626c653a20636f6e747261637420697320616c72656160448201526d191e481a5b9a5d1a585b1a5e995960921b606482015260840161051b565b600054610100900460ff161580156105d6576000805461ffff19166101011790555b6105de610e1e565b60cf80546001600160a01b03808b166001600160a01b03199283161790925560d188905560d386905560d080548a841690831617905560d287905560d485905560d680549285169290911691909117905566038d7ea4c6800060d555610642610ebb565b61064a610efa565b610655600033610d31565b8015610667576000805461ff00191690555b5050505050505050565b600260015414156106c45760405162461bcd60e51b815260206004820152601f60248201527f5265656e7472616e637947756172643a207265656e7472616e742063616c6c00604482015260640161051b565b600260015560d55434101561071b5760405162461bcd60e51b815260206004820152601760248201527f496e73756666696369656e742065746865722073656e74000000000000000000604482015260640161051b565b3233146107555760405162461bcd60e51b8152602060048201526008602482015267454f41206f6e6c7960c01b604482015260640161051b565b600061075f610f29565b60d6546040516340d097c360e01b81523360048201529192506000916001600160a01b03909116906340d097c3906024016020604051808303816000875af11580156107af573d6000803e3d6000fd5b505050506040513d601f19601f820116820180604052508101906107d39190611c88565b600092835260d86020526040909220919091555060018055565b60006107f98133610ccd565b5060d255565b600061080b8133610ccd565b60405133904780156108fc02916000818181858888f1935050505015801561052e573d6000803e3d6000fd5b60006108438133610ccd565b600061085760cb546001600160a01b031690565b6040516370a0823160e01b81523060048201529091506001600160a01b0382169063a9059cbb90339083906370a0823190602401602060405180830381865afa1580156108a8573d6000803e3d6000fd5b505050506040513d601f19601f820116820180604052508101906108cc9190611c88565b6040516001600160e01b031960e085901b1681526001600160a01b03909216600483015260248201526044016020604051808303816000875af1158015610917573d6000803e3d6000fd5b505050506040513d601f19601f8201168201806040525081019061093b9190611ca1565b61052e5760405162461bcd60e51b8152602060048201526014602482015273131a5b9ac81d1c985b9cd9995c8819985a5b195960621b604482015260640161051b565b60009182526097602090815260408084206001600160a01b0393909316845291905290205460ff1690565b60cf546001600160a01b03163314610a145760405162461bcd60e51b815260206004820152602860248201527f4f6e6c79207672662063616e2066756c66696c6c2072616e646f6d6e65737320604482015267726571756573747360c01b606482015260840161051b565b600082815260d86020526040908190205460d65491516317ba999360e01b8152600481018290526024810184905290916001600160a01b0316906317ba999390604401600060405180830381600087803b158015610a7157600080fd5b505af1158015610a85573d6000803e3d6000fd5b50505050505050565b600080610aa560d2543063fd68990a60e01b611132565b6040805180820190915260048152636e616d6560e01b6020820152909150610acf90829085611157565b60d05460d454610aea916001600160a01b0316908390611175565b600081815260d9602090815260409091208551929450610b0e92909186019061199b565b5050919050565b600082815260976020526040902060010154610b318133610ccd565b6104aa8383610db7565b600082815260ce602052604090205482906001600160a01b03163314610bb45760405162461bcd60e51b815260206004820152602860248201527f536f75726365206d75737420626520746865206f7261636c65206f6620746865604482015267081c995c5d595cdd60c21b606482015260840161051b565b600081815260ce602052604080822080546001600160a01b03191690555182917f7cc135e0cebb02c3480ae5d74d377283180a2601f8f644edf7987b009316c63a91a2600083815260d9602052604081208054610c1090611cbe565b80601f0160208091040260200160405190810160405280929190818152602001828054610c3c90611cbe565b8015610c895780601f10610c5e57610100808354040283529160200191610c89565b820191906000526020600020905b815481529060010190602001808311610c6c57829003601f168201915b505050505090508260da82604051610ca19190611d1f565b908152604051908190036020019020805491151560ff1990921691909117905550505050565b3b151590565b610cd7828261097e565b61052e57610cef816001600160a01b03166014611208565b610cfa836020611208565b604051602001610d0b929190611d3b565b60408051601f198184030181529082905262461bcd60e51b825261051b91600401611ddc565b610d3b828261097e565b61052e5760008281526097602090815260408083206001600160a01b03851684529091529020805460ff19166001179055610d733390565b6001600160a01b0316816001600160a01b0316837f2f8788117e7eff1d82e926ec794901d17c78024a50270940304540a733656f0d60405160405180910390a45050565b610dc1828261097e565b1561052e5760008281526097602090815260408083206001600160a01b0385168085529252808320805460ff1916905551339285917ff6391f5c32d9c69d2a47ea670b442974b53935d1edc7fd64eb21e047a839171b9190a45050565b610eb973c89bd4e1632d3a43cb03aaad5262cbe4038bc5716001600160a01b03166338cc48316040518163ffffffff1660e01b8152600401602060405180830381865afa158015610e73573d6000803e3d6000fd5b505050506040513d601f19601f82011682018060405250810190610e979190611def565b60cb80546001600160a01b0319166001600160a01b0392909216919091179055565b565b600054610100900460ff16610ee25760405162461bcd60e51b815260040161051b90611e0c565b610eea6113ab565b610ef26113ab565b610eb96113ab565b600054610100900460ff16610f215760405162461bcd60e51b815260040161051b90611e0c565b610eb96113d2565b600080610f3e60cb546001600160a01b031690565b60d3546040516370a0823160e01b8152306004820152919250906001600160a01b038316906370a0823190602401602060405180830381865afa158015610f89573d6000803e3d6000fd5b505050506040513d601f19601f82011682018060405250810190610fad9190611c88565b1015610ffb5760405162461bcd60e51b815260206004820152601760248201527f4e6f7420656e6f756768204c696e6b20746f2063616c6c000000000000000000604482015260640161051b565b60cf5460d35460d1546040805160208101929092526000828201528051808303820181526060830191829052630200057560e51b9091526001600160a01b0385811694634000aea0946110579492909116929091606401611e57565b6020604051808303816000875af1158015611076573d6000803e3d6000fd5b505050506040513d601f19601f8201168201806040525081019061109a9190611ca1565b5060d154600081815260d7602081815260408084208054825180850188905280840187905230606082015260808082018390528451808303909101815260a090910190935282519284019290922095855292909152916110f983611e94565b909155505060d1546040805160208101929092528101829052606001604051602081830303815290604052805190602001209250505090565b61113a611a1f565b611142611a1f565b61114e818686866113ff565b95945050505050565b60808301516111669083611445565b60808301516104aa9082611445565b60cd54600090611186816001611eaf565b60cd55835160408086015160808701515191516000936320214ca360e11b936111be9386938493923092918a91600191602401611ec7565b60408051601f198184030181529190526020810180516001600160e01b03166001600160e01b03199093169290921790915290506111fe8683868461145c565b9695505050505050565b60606000611217836002611f2f565b611222906002611eaf565b67ffffffffffffffff81111561123a5761123a611b6c565b6040519080825280601f01601f191660200182016040528015611264576020820181803683370190505b509050600360fc1b8160008151811061127f5761127f611f4e565b60200101906001600160f81b031916908160001a905350600f60fb1b816001815181106112ae576112ae611f4e565b60200101906001600160f81b031916908160001a90535060006112d2846002611f2f565b6112dd906001611eaf565b90505b6001811115611355576f181899199a1a9b1b9c1cb0b131b232b360811b85600f166010811061131157611311611f4e565b1a60f81b82828151811061132757611327611f4e565b60200101906001600160f81b031916908160001a90535060049490941c9361134e81611f64565b90506112e0565b5083156113a45760405162461bcd60e51b815260206004820181905260248201527f537472696e67733a20686578206c656e67746820696e73756666696369656e74604482015260640161051b565b9392505050565b600054610100900460ff16610eb95760405162461bcd60e51b815260040161051b90611e0c565b600054610100900460ff166113f95760405162461bcd60e51b815260040161051b90611e0c565b60018055565b611407611a1f565b61141785608001516101006115ba565b50508284526001600160a01b03821660208501526001600160e01b031981166040850152835b949350505050565b611452826003835161161f565b6104aa8282611734565b6040516bffffffffffffffffffffffff193060601b1660208201526034810184905260009060540160408051808303601f190181528282528051602091820120600081815260ce90925291812080546001600160a01b0319166001600160a01b038a1617905590925082917fb5e6e01e79f91267dc17b4e6314d5d4d03593d2ceee0fbb452b750bd70ea5af99190a260cb54604051630200057560e51b81526001600160a01b0390911690634000aea09061151f90889087908790600401611e57565b6020604051808303816000875af115801561153e573d6000803e3d6000fd5b505050506040513d601f19601f820116820180604052508101906115629190611ca1565b61143d5760405162461bcd60e51b815260206004820152602360248201527f756e61626c6520746f207472616e73666572416e6443616c6c20746f206f7261604482015262636c6560e81b606482015260840161051b565b6040805180820190915260608152600060208201526115da602083611f7b565b15611602576115ea602083611f7b565b6115f5906020611f9d565b6115ff9083611eaf565b91505b506020828101829052604080518085526000815290920101905290565b60178167ffffffffffffffff161161164a576116448360e0600585901b16831761175b565b50505050565b60ff8167ffffffffffffffff161161168857611671836018611fe0600586901b161761175b565b506116448367ffffffffffffffff83166001611780565b61ffff8167ffffffffffffffff16116116c7576116b0836019611fe0600586901b161761175b565b506116448367ffffffffffffffff83166002611780565b63ffffffff8167ffffffffffffffff1611611708576116f183601a611fe0600586901b161761175b565b506116448367ffffffffffffffff83166004611780565b61171d83601b611fe0600586901b161761175b565b506116448367ffffffffffffffff83166008611780565b6040805180820190915260608152600060208201526113a4838460000151518485516117a6565b6040805180820190915260608152600060208201526113a48384600001515184611890565b60408051808201909152606081526000602082015261143d8485600001515185856118ec565b60408051808201909152606081526000602082015282518211156117c957600080fd5b60208501516117d88386611eaf565b111561180b5761180b856117fb876020015187866117f69190611eaf565b61196d565b611806906002611f2f565b611984565b60008086518051876020830101935080888701111561182a5787860182525b505050602084015b6020841061186a5780518252611849602083611eaf565b9150611856602082611eaf565b9050611863602085611f9d565b9350611832565b51815160001960208690036101000a019081169019919091161790525083949350505050565b604080518082019091526060815260006020820152836020015183106118c5576118c584856020015160026118069190611f2f565b8351805160208583010184815350808514156118e2576001810182525b5093949350505050565b60408051808201909152606081526000602082015260208501516119108584611eaf565b111561192457611924856117fb8685611eaf565b6000600161193484610100612098565b61193e9190611f9d565b90508551838682010185831982511617815250805184870111156119625783860181525b509495945050505050565b60008183111561197e57508161047e565b50919050565b815161199083836115ba565b506116448382611734565b8280546119a790611cbe565b90600052602060002090601f0160209004810192826119c95760008555611a0f565b82601f106119e257805160ff1916838001178555611a0f565b82800160010185558215611a0f579182015b82811115611a0f5782518255916020019190600101906119f4565b50611a1b929150611a5a565b5090565b6040805160a0810182526000808252602080830182905282840182905260608084018390528451808601909552845283015290608082015290565b5b80821115611a1b5760008155600101611a5b565b600060208284031215611a8157600080fd5b81356001600160e01b0319811681146113a457600080fd5b600060208284031215611aab57600080fd5b5035919050565b6001600160a01b0381168114611ac757600080fd5b50565b60008060408385031215611add57600080fd5b823591506020830135611aef81611ab2565b809150509250929050565b600080600080600080600060e0888a031215611b1557600080fd5b8735611b2081611ab2565b96506020880135611b3081611ab2565b955060408801359450606088013593506080880135925060a0880135915060c0880135611b5c81611ab2565b8091505092959891949750929550565b634e487b7160e01b600052604160045260246000fd5b600060208284031215611b9457600080fd5b813567ffffffffffffffff80821115611bac57600080fd5b818401915084601f830112611bc057600080fd5b813581811115611bd257611bd2611b6c565b604051601f8201601f19908116603f01168101908382118183101715611bfa57611bfa611b6c565b81604052828152876020848701011115611c1357600080fd5b826020860160208301376000928101602001929092525095945050505050565b60008060408385031215611c4657600080fd5b50508035926020909101359150565b8015158114611ac757600080fd5b60008060408385031215611c7657600080fd5b823591506020830135611aef81611c55565b600060208284031215611c9a57600080fd5b5051919050565b600060208284031215611cb357600080fd5b81516113a481611c55565b600181811c90821680611cd257607f821691505b6020821081141561197e57634e487b7160e01b600052602260045260246000fd5b60005b83811015611d0e578181015183820152602001611cf6565b838111156116445750506000910152565b60008251611d31818460208701611cf3565b9190910192915050565b7f416363657373436f6e74726f6c3a206163636f756e7420000000000000000000815260008351611d73816017850160208801611cf3565b7001034b99036b4b9b9b4b733903937b6329607d1b6017918401918201528351611da4816028840160208801611cf3565b01602801949350505050565b60008151808452611dc8816020860160208601611cf3565b601f01601f19169290920160200192915050565b6020815260006113a46020830184611db0565b600060208284031215611e0157600080fd5b81516113a481611ab2565b6020808252602b908201527f496e697469616c697a61626c653a20636f6e7472616374206973206e6f74206960408201526a6e697469616c697a696e6760a81b606082015260800190565b60018060a01b038416815282602082015260606040820152600061114e6060830184611db0565b634e487b7160e01b600052601160045260246000fd5b6000600019821415611ea857611ea8611e7e565b5060010190565b60008219821115611ec257611ec2611e7e565b500190565b6001600160a01b0389811682526020820189905260408201889052861660608201526001600160e01b03198516608082015260a0810184905260c0810183905261010060e08201819052600090611f2083820185611db0565b9b9a5050505050505050505050565b6000816000190483118215151615611f4957611f49611e7e565b500290565b634e487b7160e01b600052603260045260246000fd5b600081611f7357611f73611e7e565b506000190190565b600082611f9857634e487b7160e01b600052601260045260246000fd5b500690565b600082821015611faf57611faf611e7e565b500390565b600181815b80851115611fef578160001904821115611fd557611fd5611e7e565b80851615611fe257918102915b93841c9390800290611fb9565b509250929050565b6000826120065750600161047e565b816120135750600061047e565b816001811461202957600281146120335761204f565b600191505061047e565b60ff84111561204457612044611e7e565b50506001821b61047e565b5060208310610133831016604e8410600b8410161715612072575081810a61047e565b61207c8383611fb4565b806000190482111561209057612090611e7e565b029392505050565b60006113a48383611ff756fea26469706673582212204d995f721c8e09a2a6fbc0fe25a29d4e5306a34d56597d3d85a11b7843d771cd64736f6c634300080b0033",
  "devdoc": {
    "kind": "dev",
    "methods": {
      "getRoleAdmin(bytes32)": {
        "details": "Returns the admin role that controls `role`. See {grantRole} and {revokeRole}. To change a role's admin, use {_setRoleAdmin}."
      },
      "grantRole(bytes32,address)": {
        "details": "Grants `role` to `account`. If `account` had not been already granted `role`, emits a {RoleGranted} event. Requirements: - the caller must have ``role``'s admin role."
      },
      "hasRole(bytes32,address)": {
        "details": "Returns `true` if `account` has been granted `role`."
      },
      "renounceRole(bytes32,address)": {
        "details": "Revokes `role` from the calling account. Roles are often managed via {grantRole} and {revokeRole}: this function's purpose is to provide a mechanism for accounts to lose their privileges if they are compromised (such as when a trusted device is misplaced). If the calling account had been revoked `role`, emits a {RoleRevoked} event. Requirements: - the caller must be `account`."
      },
      "revokeRole(bytes32,address)": {
        "details": "Revokes `role` from `account`. If `account` had been granted `role`, emits a {RoleRevoked} event. Requirements: - the caller must have ``role``'s admin role."
      },
      "supportsInterface(bytes4)": {
        "details": "See {IERC165-supportsInterface}."
      }
    },
    "version": 1
  },
  "userdoc": {
    "kind": "user",
    "methods": {},
    "version": 1
  },
  "storageLayout": {
    "storage": [
      {
        "astId": 3000,
        "contract": "contracts/Controller.sol:Controller",
        "label": "_initialized",
        "offset": 0,
        "slot": "0",
        "type": "t_bool"
      },
      {
        "astId": 3003,
        "contract": "contracts/Controller.sol:Controller",
        "label": "_initializing",
        "offset": 1,
        "slot": "0",
        "type": "t_bool"
      },
      {
        "astId": 3305,
        "contract": "contracts/Controller.sol:Controller",
        "label": "_status",
        "offset": 0,
        "slot": "1",
        "type": "t_uint256"
      },
      {
        "astId": 3348,
        "contract": "contracts/Controller.sol:Controller",
        "label": "__gap",
        "offset": 0,
        "slot": "2",
        "type": "t_array(t_uint256)49_storage"
      },
      {
        "astId": 5212,
        "contract": "contracts/Controller.sol:Controller",
        "label": "__gap",
        "offset": 0,
        "slot": "51",
        "type": "t_array(t_uint256)50_storage"
      },
      {
        "astId": 5595,
        "contract": "contracts/Controller.sol:Controller",
        "label": "__gap",
        "offset": 0,
        "slot": "101",
        "type": "t_array(t_uint256)50_storage"
      },
      {
        "astId": 2224,
        "contract": "contracts/Controller.sol:Controller",
        "label": "_roles",
        "offset": 0,
        "slot": "151",
        "type": "t_mapping(t_bytes32,t_struct(RoleData)2219_storage)"
      },
      {
        "astId": 2511,
        "contract": "contracts/Controller.sol:Controller",
        "label": "__gap",
        "offset": 0,
        "slot": "152",
        "type": "t_array(t_uint256)49_storage"
      },
      {
        "astId": 319,
        "contract": "contracts/Controller.sol:Controller",
        "label": "s_ens",
        "offset": 0,
        "slot": "201",
        "type": "t_contract(ENSInterface)974"
      },
      {
        "astId": 321,
        "contract": "contracts/Controller.sol:Controller",
        "label": "s_ensNode",
        "offset": 0,
        "slot": "202",
        "type": "t_bytes32"
      },
      {
        "astId": 324,
        "contract": "contracts/Controller.sol:Controller",
        "label": "s_link",
        "offset": 0,
        "slot": "203",
        "type": "t_contract(LinkTokenInterface)1069"
      },
      {
        "astId": 327,
        "contract": "contracts/Controller.sol:Controller",
        "label": "s_oracle",
        "offset": 0,
        "slot": "204",
        "type": "t_contract(OperatorInterface)1149"
      },
      {
        "astId": 330,
        "contract": "contracts/Controller.sol:Controller",
        "label": "s_requestCount",
        "offset": 0,
        "slot": "205",
        "type": "t_uint256"
      },
      {
        "astId": 334,
        "contract": "contracts/Controller.sol:Controller",
        "label": "s_pendingRequests",
        "offset": 0,
        "slot": "206",
        "type": "t_mapping(t_bytes32,t_address)"
      },
      {
        "astId": 6610,
        "contract": "contracts/Controller.sol:Controller",
        "label": "vrf",
        "offset": 0,
        "slot": "207",
        "type": "t_address"
      },
      {
        "astId": 6612,
        "contract": "contracts/Controller.sol:Controller",
        "label": "oracle",
        "offset": 0,
        "slot": "208",
        "type": "t_address"
      },
      {
        "astId": 6614,
        "contract": "contracts/Controller.sol:Controller",
        "label": "keyHash",
        "offset": 0,
        "slot": "209",
        "type": "t_bytes32"
      },
      {
        "astId": 6616,
        "contract": "contracts/Controller.sol:Controller",
        "label": "jobId",
        "offset": 0,
        "slot": "210",
        "type": "t_bytes32"
      },
      {
        "astId": 6618,
        "contract": "contracts/Controller.sol:Controller",
        "label": "vrfFee",
        "offset": 0,
        "slot": "211",
        "type": "t_uint256"
      },
      {
        "astId": 6620,
        "contract": "contracts/Controller.sol:Controller",
        "label": "oracleFee",
        "offset": 0,
        "slot": "212",
        "type": "t_uint256"
      },
      {
        "astId": 6622,
        "contract": "contracts/Controller.sol:Controller",
        "label": "mintPrice",
        "offset": 0,
        "slot": "213",
        "type": "t_uint256"
      },
      {
        "astId": 6625,
        "contract": "contracts/Controller.sol:Controller",
        "label": "characterNFT",
        "offset": 0,
        "slot": "214",
        "type": "t_contract(ICharacter)7050"
      },
      {
        "astId": 6629,
        "contract": "contracts/Controller.sol:Controller",
        "label": "nonces",
        "offset": 0,
        "slot": "215",
        "type": "t_mapping(t_bytes32,t_uint256)"
      },
      {
        "astId": 6633,
        "contract": "contracts/Controller.sol:Controller",
        "label": "requestIdToTokenId",
        "offset": 0,
        "slot": "216",
        "type": "t_mapping(t_bytes32,t_uint256)"
      },
      {
        "astId": 6637,
        "contract": "contracts/Controller.sol:Controller",
        "label": "requestIdToName",
        "offset": 0,
        "slot": "217",
        "type": "t_mapping(t_bytes32,t_string_storage)"
      },
      {
        "astId": 6641,
        "contract": "contracts/Controller.sol:Controller",
        "label": "validName",
        "offset": 0,
        "slot": "218",
        "type": "t_mapping(t_string_memory_ptr,t_bool)"
      }
    ],
    "types": {
      "t_address": {
        "encoding": "inplace",
        "label": "address",
        "numberOfBytes": "20"
      },
      "t_array(t_uint256)49_storage": {
        "base": "t_uint256",
        "encoding": "inplace",
        "label": "uint256[49]",
        "numberOfBytes": "1568"
      },
      "t_array(t_uint256)50_storage": {
        "base": "t_uint256",
        "encoding": "inplace",
        "label": "uint256[50]",
        "numberOfBytes": "1600"
      },
      "t_bool": {
        "encoding": "inplace",
        "label": "bool",
        "numberOfBytes": "1"
      },
      "t_bytes32": {
        "encoding": "inplace",
        "label": "bytes32",
        "numberOfBytes": "32"
      },
      "t_contract(ENSInterface)974": {
        "encoding": "inplace",
        "label": "contract ENSInterface",
        "numberOfBytes": "20"
      },
      "t_contract(ICharacter)7050": {
        "encoding": "inplace",
        "label": "contract ICharacter",
        "numberOfBytes": "20"
      },
      "t_contract(LinkTokenInterface)1069": {
        "encoding": "inplace",
        "label": "contract LinkTokenInterface",
        "numberOfBytes": "20"
      },
      "t_contract(OperatorInterface)1149": {
        "encoding": "inplace",
        "label": "contract OperatorInterface",
        "numberOfBytes": "20"
      },
      "t_mapping(t_address,t_bool)": {
        "encoding": "mapping",
        "key": "t_address",
        "label": "mapping(address => bool)",
        "numberOfBytes": "32",
        "value": "t_bool"
      },
      "t_mapping(t_bytes32,t_address)": {
        "encoding": "mapping",
        "key": "t_bytes32",
        "label": "mapping(bytes32 => address)",
        "numberOfBytes": "32",
        "value": "t_address"
      },
      "t_mapping(t_bytes32,t_string_storage)": {
        "encoding": "mapping",
        "key": "t_bytes32",
        "label": "mapping(bytes32 => string)",
        "numberOfBytes": "32",
        "value": "t_string_storage"
      },
      "t_mapping(t_bytes32,t_struct(RoleData)2219_storage)": {
        "encoding": "mapping",
        "key": "t_bytes32",
        "label": "mapping(bytes32 => struct AccessControlUpgradeable.RoleData)",
        "numberOfBytes": "32",
        "value": "t_struct(RoleData)2219_storage"
      },
      "t_mapping(t_bytes32,t_uint256)": {
        "encoding": "mapping",
        "key": "t_bytes32",
        "label": "mapping(bytes32 => uint256)",
        "numberOfBytes": "32",
        "value": "t_uint256"
      },
      "t_mapping(t_string_memory_ptr,t_bool)": {
        "encoding": "mapping",
        "key": "t_string_memory_ptr",
        "label": "mapping(string => bool)",
        "numberOfBytes": "32",
        "value": "t_bool"
      },
      "t_string_memory_ptr": {
        "encoding": "bytes",
        "label": "string",
        "numberOfBytes": "32"
      },
      "t_string_storage": {
        "encoding": "bytes",
        "label": "string",
        "numberOfBytes": "32"
      },
      "t_struct(RoleData)2219_storage": {
        "encoding": "inplace",
        "label": "struct AccessControlUpgradeable.RoleData",
        "members": [
          {
            "astId": 2216,
            "contract": "contracts/Controller.sol:Controller",
            "label": "members",
            "offset": 0,
            "slot": "0",
            "type": "t_mapping(t_address,t_bool)"
          },
          {
            "astId": 2218,
            "contract": "contracts/Controller.sol:Controller",
            "label": "adminRole",
            "offset": 0,
            "slot": "1",
            "type": "t_bytes32"
          }
        ],
        "numberOfBytes": "64"
      },
      "t_uint256": {
        "encoding": "inplace",
        "label": "uint256",
        "numberOfBytes": "32"
      }
    }
  }
}